:100000000C945D000C9485000C9485000C94850084
:100010000C9485000C9485000C9485000C9485004C
:100020000C9485000C9485000C9485000C9485003C
:100030000C9485000C9485000C9485000C9485002C
:100040000C945D030C9485000C942B030C94050315
:100050000C9485000C9485000C9485000C9485000C
:100060000C9485000C94850000000008000201003B
:100070000003040700000000000000000000000072
:10008000250028002B0000000000240027002A0083
:10009000040404040404040402020202020203032E
:1000A0000303030301020408102040800102040836
:1000B0001020010204081020A70311241FBECFEF57
:1000C000D8E0DEBFCDBF22E0AAE3B1E001C01D92BF
:1000D000A233B207E1F711E0A0E0B1E0E2EBFCE00F
:1000E00002C005900D92AA33B107D9F710E0CDE513
:1000F000D0E004C02197FE010E945106CC35D10703
:10010000C9F70E94E6030C9457060C940000EFE434
:10011000F1E0A089B18982E08C93A485B5851C9219
:10012000A685B78580E18C93108EA489B58986E079
:100130008C93A289B3898C9180618C93A289B389B5
:100140008C9188608C93A289B3898C9180688C9300
:100150000288F389E02D80818F7D8083089590E06F
:10016000FC01EC55FF4F249180579F4FFC01849177
:10017000882399F090E0880F991FFC01EA57FF4F00
:10018000A591B491FC01E458FF4F859194918FB7EC
:10019000F894EC91E22BEC938FBF0895AF92BF924D
:1001A000CF92DF92EF92FF920F931F93CF93DF9343
:1001B0006C017B018B01040F151FEB015E01AE1872
:1001C000BF08C017D10759F06991D601ED91FC9194
:1001D0000190F081E02DC6010995892B79F7C501C1
:1001E000DF91CF911F910F91FF90EF90DF90CF9013
:1001F000BF90AF900895FC01538D448D252F30E0C2
:10020000842F90E0821B930B541710F0CF96089523
:1002100001970895FC01918D828D981761F0A28D50
:10022000AE0FBF2FB11D5D968C91928D9F5F9F7316
:10023000928F90E008958FEF9FEF0895FC01918DCC
:10024000828D981731F0828DE80FF11D858D90E039
:1002500008958FEF9FEF0895FC01918D228D892FD6
:1002600090E0805C9F4F821B91098F7399270895BE
:100270008FE491E00E942C0121E0892B09F420E019
:10028000822F089580E090E0892B29F00E943801A8
:1002900081110C9400000895FC01A48DA80FB92FC2
:1002A000B11DA35ABF4F2C91848D90E001968F739E
:1002B0009927848FA689B7892C93A089B1898C91BD
:1002C000837080648C93938D848D981306C002880C
:1002D000F389E02D80818F7D80830895EF92FF92D6
:1002E0000F931F93CF93DF93EC0181E0888F9B8D59
:1002F0008C8D98131AC0E889F989808185FF15C013
:100300009FB7F894EE89FF896083E889F989808135
:100310008370806480839FBF81E090E0DF91CF9104
:100320001F910F91FF90EF900895F62E0B8D10E026
:100330000F5F1F4F0F731127E02E8C8D8E110CC095
:100340000FB607FCFACFE889F989808185FFF5CFE0
:10035000CE010E944C01F1CFEB8DEC0FFD2FF11D72
:10036000E35AFF4FF0829FB7F8940B8FEA89FB891D
:1003700080818062CFCFCF93DF93EC01888D88237B
:10038000B9F0AA89BB89E889F9898C9185FD03C0F8
:10039000808186FD0DC00FB607FCF7CF8C9185FFDD
:1003A000F2CF808185FFEDCFCE010E944C01E9CFD5
:1003B000DF91CF91089590E0FC01E859FF4F24911F
:1003C000FC01EC55FF4F3491FC01E057FF4FE491E5
:1003D000EE23C9F0222339F0233001F1A8F42130B3
:1003E00019F1223029F1F0E0EE0FFF1FE458FF4F22
:1003F000A591B4918FB7F894EC91611126C0309516
:100400003E233C938FBF08952730A9F02830C9F0D0
:10041000243049F7809180008F7D03C08091800057
:100420008F7780938000DFCF84B58F7784BDDBCF5B
:1004300084B58F7DFBCF8091B0008F778093B00023
:10044000D2CF8091B0008F7DF9CF3E2BDACF1F93B2
:10045000CF93DF93182FEB010E94AF00209739F460
:1004600060E0812FDF91CF911F910C94DB01CF3F92
:10047000D10511F461E0F5CFE12FF0E0E859FF4F2D
:10048000E491E33031F140F4E130B1F0E230E1F0F9
:10049000C038D1057CF7E4CFE73029F1E83059F1D5
:1004A000E430B1F780918000806280938000D09327
:1004B0008B00C0938A0004C084B5806884BDC7BD2A
:1004C000DF91CF911F91089584B5806284BDC8BD2E
:1004D000F7CF80918000806880938000D09389005E
:1004E000C0938800EDCF8091B00080688093B00009
:1004F000C093B300E5CF8091B00080628093B000DC
:10050000C093B400DDCF3FB7F89480913F01909144
:100510004001A0914101B091420126B5A89B05C0C0
:100520002F3F19F00196A11DB11D3FBFBA2FA92F72
:10053000982F8827BC01CD01620F711D811D911D6F
:1005400042E0660F771F881F991F4A95D1F70895DB
:100550002FB7F89460913B0170913C0180913D016F
:1005600090913E012FBF0895FC0101900020E9F712
:100570003197AF01481B590BBC018FE491E00C94FB
:10058000CE008F929F92AF92BF920F931F93CF9303
:10059000DF93CDB7DEB7A1970FB6F894DEBF0FBEDD
:1005A000CDBF19A2423008F44AE08E010F5D1F4F03
:1005B000842E912CB12CA12CA50194010E942F0610
:1005C000E62FB901CA01EA30F4F4E05DD801EE93F8
:1005D0008D01232B242B252B79F790E080E01097B9
:1005E00019F0CD010E94B402A1960FB6F894DEBFB7
:1005F0000FBECDBFDF91CF911F910F91BF90AF90F4
:100600009F908F900895E95CE1CF1F920F920FB6F3
:100610000F9211242F933F934F935F936F937F9388
:100620008F939F93AF93BF93EF93FF938FE491E0EA
:100630000E944C01FF91EF91BF91AF919F918F91DB
:100640007F916F915F914F913F912F910F900FBECE
:100650000F901F9018951F920F920FB60F921124B2
:100660002F938F939F93EF93FF93E0915F01F0910E
:1006700060018081E0916501F091660182FD1BC0FF
:100680009081809168018F5F8F732091690182173B
:1006900041F0E0916801F0E0E15BFE4F958F8093BF
:1006A0006801FF91EF919F918F912F910F900FBE55
:1006B0000F901F9018958081F4CF1F920F920FB664
:1006C0000F9211242F933F938F939F93AF93BF93D8
:1006D00080913B0190913C01A0913D01B0913E0180
:1006E00030913A0123E0230F2D3758F50196A11DD3
:1006F000B11D20933A0180933B0190933C01A0935C
:100700003D01B0933E0180913F0190914001A09145
:100710004101B09142010196A11DB11D80933F019D
:1007200090934001A0934101B0934201BF91AF91DA
:100730009F918F913F912F910F900FBE0F901F901F
:10074000189526E8230F0296A11DB11DD2CFEFE424
:10075000F1E01382128288EE93E0A0E0B0E084839F
:100760009583A683B78384E091E09183808385ECB1
:1007700090E09587848784EC90E09787868780EC6B
:1007800090E0918B808B81EC90E0938B828B82EC5C
:1007900090E0958B848B86EC90E0978B868B118E06
:1007A000128E138E148EECEEF1E0168217821086F4
:1007B0001186128613861486158616861786108A69
:1007C000118A128A138A148A158A0895789484B536
:1007D000826084BD84B5816084BD85B5826085BD3D
:1007E00085B5816085BD80916E00816080936E00CB
:1007F00010928100809181008260809381008091BD
:10080000810081608093810080918000816080936D
:1008100080008091B10084608093B1008091B0002D
:1008200081608093B00080917A00846080937A0028
:1008300080917A00826080937A0080917A00816052
:1008400080937A0080917A00806880937A00109279
:10085000C10010922E0210922F02109230021092BC
:1008600031021092EE011092EF011092F0011092FD
:10087000F1010E94A8026B017C014B015C0128EB95
:10088000820E2BE0921EA11CB11C0E94A8026C15C6
:100890007D058E059F0528F086169706A806B906E1
:1008A000A0F70E9483024B015C0198EEC92E93E0F1
:1008B000D92EE12CF12C0E948302681979098A094A
:1008C0009B09683E734081059105A8F331E0C31A86
:1008D000D108E108F10848EE840E43E0941EA11C03
:1008E000B11CC114D104E104F10429F70E9487006E
:1008F0000E94A8026093EE017093EF018093F001D3
:100900009093F10182E191E00E94B4020E94A8025A
:100910006B017C014B015C018AE0880E911CA11CDB
:10092000B11C0E94A8026C157D058E059F0528F05C
:1009300086169706A806B906A0F781E08093020202
:100940000E9487008CE00E94AF008BE00E94AF0005
:100950008AE00E94AF0089E00E94AF0000E010E052
:1009600084EF482E55245394612C712CCFEFD0E0A6
:100970000E94A802672B682B692B09F4E0C00E9433
:10098000A802C0904B01D0904C01E0904D01F09036
:100990004E016C157D058E059F0508F4FAC0C090C8
:1009A0004B01D0904C01E0904D01F0904E019B0125
:1009B000AC012C193D094E095F0969017A013AEF32
:1009C000C316D104E104F10408F4C1C060934B01E3
:1009D00070934C0180934D0190934E014092FA0127
:1009E0005092FB016092FC017092FD011092FE0199
:1009F0001092FF0110920002109201028091F20108
:100A00009091F301A091F401B091F5018093F6016A
:100A10009093F701A093F801B093F9010E94A80206
:100A20006093F2017093F3018093F4019093F501C8
:100A30000E94A8026093EE017093EF018093F00191
:100A40009093F1010E94A8026B017C0183E291E086
:100A50000E94B4024AE061E070E080E090E00E9411
:100A6000C1028AE291E00E94B4024AE0C701B601E5
:100A70000E94C1028CE291E00E94B4028091F201D6
:100A80009091F301A091F401B091F501A7019601B5
:100A9000281B390B4A0B5B0BCA01B9014AE00E94C3
:100AA000C1028CE291E00E94B4026091F201709167
:100AB000F3018091F4019091F501C090F601D0907E
:100AC000F701E090F801F090F9016C197D098E09A9
:100AD0009F094AE00E94C1028EE291E00E94B402A6
:100AE0000E94A8024AE00E94C10280E391E00E94B5
:100AF000B40287E391E00E94B4020E94A8026B0155
:100B00007C014B015C0132E0830E911CA11CB11CE5
:100B10000E94A8026C157D058E059F0528F086169B
:100B20009706A806B906A0F70E94A8026093F201F2
:100B30007093F3018093F4019093F50108C00E9433
:100B4000A802623071058105910508F018CF8FE485
:100B500091E00E942C01181619060CF036C08FE4A3
:100B600091E00E940A01EFE9E80FEB3050F50E2EFC
:100B7000000CFF0BE254FA4F0C945106D2050D06FF
:100B800012061606E105E105E1051B06200625060D
:100B90002A0660934B0170934C0180934D01909312
:100BA0004E01FDCED0934401C09343014AE06FEF64
:100BB00070E080E090E00E94C10287E391E00E9433
:100BC000B4028FE491E00E94BB01609143017091F7
:100BD00044018CE00E94270260914501709146011A
:100BE0008BE00E94270260914701709148018AE0E2
:100BF0000E9427026091490170914A0189E00E9498
:100C000027020115110509F4B3CE0E94380188238B
:100C100009F4AECE0E940000ABCED0934601C09343
:100C20004501CFCFD0934801C0934701D0934A01EB
:100C3000C0934901C6CF1092440110924301C1CF25
:100C40001092460110924501BCCF109248011092BB
:100C50004701B7CF10924A0110924901B2CFA1E2E9
:100C60001A2EAA1BBB1BFD010DC0AA1FBB1FEE1F26
:100C7000FF1FA217B307E407F50720F0A21BB30B71
:100C8000E40BF50B661F771F881F991F1A9469F7ED
:100C900060957095809590959B01AC01BD01CF0149
:100CA0000895EE0FFF1F0590F491E02D0994F8943C
:020CB000FFCF74
:100CB200000000006E01CE00FB00BB012C010A0106
:100CC2001E01564D4450565F317C315F564D4450A3
:100CD200560A00564D4450455F003A323A007C00B5
:0A0CE2005F564D445045000D0A0016
:107E0000112484B714BE81FFF0D085E080938100F7
:107E100082E08093C00088E18093C10086E0809377
:107E2000C20080E18093C4008EE0C9D0259A86E02C
:107E300020E33CEF91E0309385002093840096BBD3
:107E4000B09BFECF1D9AA8958150A9F7CC24DD24C4
:107E500088248394B5E0AB2EA1E19A2EF3E0BF2EE7
:107E6000A2D0813461F49FD0082FAFD0023811F036
:107E7000013811F484E001C083E08DD089C08234E0
:107E800011F484E103C0853419F485E0A6D080C0E4
:107E9000853579F488D0E82EFF2485D0082F10E0AE
:107EA000102F00270E291F29000F111F8ED06801E7
:107EB0006FC0863521F484E090D080E0DECF843638
:107EC00009F040C070D06FD0082F6DD080E0C81688
:107ED00080E7D80618F4F601B7BEE895C0E0D1E017
:107EE00062D089930C17E1F7F0E0CF16F0E7DF06D8
:107EF00018F0F601B7BEE89568D007B600FCFDCFD4
:107F0000A601A0E0B1E02C9130E011968C91119780
:107F100090E0982F8827822B932B1296FA010C0160
:107F200087BEE89511244E5F5F4FF1E0A038BF0790
:107F300051F7F601A7BEE89507B600FCFDCF97BE46
:107F4000E89526C08437B1F42ED02DD0F82E2BD052
:107F50003CD0F601EF2C8F010F5F1F4F84911BD097
:107F6000EA94F801C1F70894C11CD11CFA94CF0C13
:107F7000D11C0EC0853739F428D08EE10CD085E9AC
:107F80000AD08FE07ACF813511F488E018D01DD067
:107F900080E101D065CF982F8091C00085FFFCCF94
:107FA0009093C60008958091C00087FFFCCF809118
:107FB000C00084FD01C0A8958091C6000895E0E648
:107FC000F0E098E1908380830895EDDF803219F02E
:107FD00088E0F5DFFFCF84E1DECF1F93182FE3DFCA
:107FE0001150E9F7F2DF1F91089580E0E8DFEE27F6
:047FF000FF270994CA
:027FFE00040479
:0400000300007E007B
:00000001FF