:100000000C9435000C945D000C945D000C945D0024
:100010000C945D000C945D000C945D000C945D00EC
:100020000C945D000C945D000C945D000C945D00DC
:100030000C945D000C945D000C945D000C945D00CC
:100040000C9478020C945D000C9446020C942002EF
:100050000C945D000C945D000C945D000C945D00AC
:100060000C945D000C945D00C20211241FBECFEF02
:10007000D8E0DEBFCDBF22E0A6E4B1E001C01D9212
:10008000A633B207E1F711E0A0E0B1E0EEEAFFE04D
:1000900002C005900D92A634B107D9F710E0C5E370
:1000A000D0E004C02197FE010E94CF07C433D107DE
:1000B000C9F70E9401030C94D5070C940000AF927D
:1000C000BF92CF92DF92EF92FF920F931F93CF9345
:1000D000DF936C017B018B01040F151FEB015E01A7
:1000E000AE18BF08C017D10759F06991D601ED913C
:1000F000FC910190F081E02DC6010995892B79F7DB
:10010000C501DF91CF911F910F91FF90EF90DF908C
:10011000CF90BF90AF900895FC01538D448D252F53
:1001200030E0842F90E0821B930B541710F0CF9691
:10013000089501970895FC01918D828D981761F0C3
:10014000A28DAE0FBF2FB11D5D968C91928D9F5FDA
:100150009F73928F90E008958FEF9FEF0895FC01B9
:10016000918D828D981731F0828DE80FF11D858D6C
:1001700090E008958FEF9FEF0895FC01918D228DFF
:10018000892F90E0805C9F4F821B91098F73992784
:10019000089583E591E00E94BD0021E0892B09F4D8
:1001A00020E0822F089580E090E0892B29F00E94C2
:1001B000C90081110C9400000895FC01A48DA80FC2
:1001C000B92FB11DA35ABF4F2C91848D90E0019699
:1001D0008F739927848FA689B7892C93A089B189B9
:1001E0008C91837080648C93938D848D981306C05A
:1001F0000288F389E02D80818F7D80830895EF92BE
:10020000FF920F931F93CF93DF93EC0181E0888FD0
:100210009B8D8C8D98131AC0E889F989808185FFA0
:1002200015C09FB7F894EE89FF896083E889F98942
:1002300080818370806480839FBF81E090E0DF9144
:10024000CF911F910F91FF90EF900895F62E0B8D97
:1002500010E00F5F1F4F0F731127E02E8C8D8E1152
:100260000CC00FB607FCFACFE889F989808185FFB9
:10027000F5CFCE010E94DD00F1CFEB8DEC0FFD2F0D
:10028000F11DE35AFF4FF0829FB7F8940B8FEA8974
:10029000FB8980818062CFCFCF93DF93EC01888D83
:1002A0008823B9F0AA89BB89E889F9898C9185FDF1
:1002B00003C0808186FD0DC00FB607FCF7CF8C917F
:1002C00085FFF2CF808185FFEDCFCE010E94DD005A
:1002D000E9CFDF91CF9108953FB7F89480914B011A
:1002E00090914C01A0914D01B0914E0126B5A89B73
:1002F00005C02F3F19F00196A11DB11D3FBFBA2FB8
:10030000A92F982F8827BC01CD01620F711D811D77
:10031000911D42E0660F771F881F991F4A95D1F7FC
:1003200008958F929F92AF92BF92CF92DF92EF92F9
:10033000FF924B015C010E946C016B017C010E94E9
:100340006C016C197D098E099F09683E7340810517
:100350009105A8F321E0821A9108A108B10888EE5E
:10036000C80E83E0D81EE11CF11C81149104A10485
:10037000B10429F7FF90EF90DF90CF90BF90AF903E
:100380009F908F9008952FB7F894609147017091D6
:1003900048018091490190914A012FBF0895FC01C5
:1003A00001900020E9F73197AF01481B590BBC01C0
:1003B00083E591E00C945F008F929F92AF92BF9281
:1003C0000F931F93CF93DF93CDB7DEB7A1970FB6EF
:1003D000F894DEBF0FBECDBF19A2423008F44AE048
:1003E0008E010F5D1F4F842E912CB12CA12CA501E5
:1003F00094010E940707E62FB901CA01EA30F4F41C
:10040000E05DD801EE938D01232B242B252B79F76A
:1004100090E080E0109719F0CD010E94CF01A196E5
:100420000FB6F894DEBF0FBECDBFDF91CF911F9105
:100430000F91BF90AF909F908F900895E95CE1CFAE
:100440001F920F920FB60F9211242F933F934F9349
:100450005F936F937F938F939F93AF93BF93EF932C
:10046000FF9383E591E00E94DD00FF91EF91BF9142
:10047000AF919F918F917F916F915F914F913F913C
:100480002F910F900FBE0F901F9018951F920F92F3
:100490000FB60F9211242F938F939F93EF93FF9397
:1004A000E0916301F09164018081E0916901F09134
:1004B0006A0182FD1BC0908180916C018F5F8F73F8
:1004C00020916D01821741F0E0916C01F0E0ED5A4E
:1004D000FE4F958F80936C01FF91EF919F918F91CB
:1004E0002F910F900FBE0F901F9018958081F4CF21
:1004F0001F920F920FB60F9211242F933F938F9359
:100500009F93AF93BF938091470190914801A09131
:100510004901B0914A013091460123E0230F2D3764
:1005200058F50196A11DB11D209346018093470106
:1005300090934801A0934901B0934A0180914B01E7
:1005400090914C01A0914D01B0914E010196A11DD9
:10055000B11D80934B0190934C01A0934D01B0933A
:100560004E01BF91AF919F918F913F912F910F902D
:100570000FBE0F901F90189526E8230F0296A11D1D
:10058000B11DD2CFE3E5F1E01382128288EE93E051
:10059000A0E0B0E084839583A683B78384E091E0F4
:1005A0009183808385EC90E09587848784EC90E04C
:1005B0009787868780EC90E0918B808B81EC90E030
:1005C000938B828B82EC90E0958B848B86EC90E011
:1005D000978B868B118E128E138E148EE0EFF1E0C6
:1005E0001682178210861186128613861486158647
:1005F00016861786108A118A128A138A148A158A17
:100600000895789484B5826084BD84B5816084BD8A
:1006100085B5826085BD85B5816085BD80916E00A0
:10062000816080936E0010928100809181008260D1
:10063000809381008091810081608093810080910E
:1006400080008160809380008091B10084608093FD
:10065000B1008091B00081608093B00080917A00F9
:10066000846080937A0080917A00826080937A001F
:1006700080917A00816080937A0080917A0080680E
:1006800080937A001092C1001092320210923302CD
:1006900010923402109235021092F2011092F3017E
:1006A0001092F4011092F5010E94C3016B017C01CC
:1006B0004B015C0128EB820E2BE0921EA11CB11CA9
:1006C0000E94C3016C157D058E059F0528F08616D6
:1006D0009706A806B906A0F768EE73E080E090E000
:1006E0000E949101E0916301F091640182E08083B6
:1006F000E0915F01F09160011082E0916101F09161
:10070000620180E1808310926B01E0916701F091BA
:10071000680186E08083E0916501F0916601808147
:1007200080618083E0916501F0916601808188603D
:100730008083E0916501F09166018081806880830B
:10074000E0916501F091660180818F7D80830E9438
:10075000C3016093F2017093F3018093F4019093CD
:10076000F50182E191E00E94CF010E94C3016B017B
:100770007C014B015C013AE0830E911CA11CB11C71
:100780000E94C3016C157D058E059F0528F0861615
:100790009706A806B906A0F781E080930602E091CB
:1007A0006301F091640182E08083E0915F01F09148
:1007B00060011082E0916101F09162018DEA808315
:1007C00010926B01E0916701F091680186E08083EF
:1007D000E0916501F0916601808180618083E09104
:1007E0006501F0916601808188608083E0916501F8
:1007F000F0916601808180688083E0916501F091CD
:10080000660180818F7D808310E4C0E0D0E00E948B
:10081000C301672B682B692B09F4E4C00E94C30154
:10082000C0904F01D0905001E0905101F0905201E2
:100830006C157D058E059F0508F428C1C0904F01F9
:10084000D0905001E0905101F09052019B01AC0119
:100850002C193D094E095F0969017A013AEFC31667
:10086000D104E104F10408F4C5C060934F01709312
:100870005001809351019093520184EF91E0A0E0E8
:10088000B0E08093FE019093FF01A0930002B0932B
:1008900001021092020210920302109204021092BE
:1008A00005028091F6019091F701A091F801B091B5
:1008B000F9018093FA019093FB01A093FC01B0939E
:1008C000FD010E94C3016093F6017093F7018093CC
:1008D000F8019093F9010E94C3016093F2017093B3
:1008E000F3018093F4019093F5010E94C3016B0121
:1008F0007C0183E291E00E94CF014AE061E070E078
:1009000080E090E00E94DC018AE291E00E94CF0149
:100910004AE0C701B6010E94DC018CE291E00E942E
:10092000CF018091F6019091F701A091F801B0916B
:10093000F901A7019601281B390B4A0B5B0BCA0171
:10094000B9014AE00E94DC018CE291E00E94CF01F3
:100950006091F6017091F7018091F8019091F90191
:10096000C090FA01D090FB01E090FC01F090FD01F5
:100970006C197D098E099F094AE00E94DC018EE214
:1009800091E00E94CF010E94C3014AE00E94DC0175
:1009900080E391E00E94CF0187E391E00E94CF01C4
:1009A0000E94C3014B015C017C016B0132E0C30E6C
:1009B000D11CE11CF11C0E94C301681579058A0550
:1009C0009B0528F0C616D706E806F906A0F70E9490
:1009D000C3016093F6017093F7018093F80190933F
:1009E000F90108C00E94C3016230710581059105BB
:1009F00008F014CF10937C0080917A00806480937B
:100A00007A0080917A0086FDFCCF80917800609119
:100A10007900762F682F072E000C880B990B0E9407
:100A2000EA0520E030E040EA50E40E94490620E078
:100A300030E040E85AE30E94490620E030E048EC0C
:100A400052E40E9449066B017C014B015C01AC0140
:100A50009B010E94CA07882311F18AE391E00E945A
:100A6000CF0187E391E00E94CF0164EF71E080E065
:100A700090E00E949101209709F4C9CE0E94C9001C
:100A8000882309F4C4CE0E940000C1CE60934F01B8
:100A9000709350018093510190935201CFCE260163
:100AA0003701E89477F82FEF3FEF4FE75FE7C30197
:100AB000B2010E94CA0781110DC02FEF3FEF4FE72F
:100AC0005FE7C301B2010E94E30518161CF48EE330
:100AD00091E0C5CF2FEF3FEF4FE75FE4C701B601CD
:100AE0000E94C50718161CF482E491E0B8CF2FEFDE
:100AF0003FEF4FE75FECC701B6010E94E30587FDBA
:100B0000F3CF20E030E0A901C701B6010E94E30560
:100B100087FF0BC06DE283E591E00E94FF00460174
:100B20005701B7FAB094B7F8B0942AE037ED43EA2A
:100B30005BE3C501B4010E942A074B015C010E94DE
:100B400096076B017C010E94E8059B01AC01C50181
:100B5000B4010E9429074B015C014AE0C701B601BC
:100B60000E94DC016EE283E591E00E94FF0020E03C
:100B700030E040E251E4C501B4010E9449064B0156
:100B80005C010E9496076B01F12CE12C4AE0C70141
:100B9000B6010E94DC01C701B6010E94E8059B0175
:100BA000AC01C501B4010E94290720E030E040E219
:100BB00051E40E9449060E94960790E080E04AE0D6
:100BC0000E94DC014ECF0E94250608F481E00895C2
:100BD000E89409C097FB3EF49095809570956195D7
:100BE0007F4F8F4F9F4F9923A9F0F92F96E9BB278D
:100BF0009395F695879577956795B795F111F8CF09
:100C0000FAF4BB0F11F460FF1BC06F5F7F4F8F4F73
:100C10009F4F16C0882311F096E911C0772321F069
:100C20009EE8872F762F05C0662371F096E8862F01
:100C300070E060E02AF09A95660F771F881FDAF758
:100C4000880F9695879597F90895990F0008550F85
:100C5000AA0BE0E8FEEF16161706E807F907C0F042
:100C600012161306E407F50798F0621B730B840B4A
:100C7000950B39F40A2661F0232B242B252B21F424
:100C800008950A2609F4A140A6958FEF811D811DC4
:100C900008950E945C060C94CD060E94BF0638F0B1
:100CA0000E94C60620F0952311F00C94B6060C9411
:100CB000BC0611240C9401070E94DE0670F3959F78
:100CC000C1F3950F50E0551F629FF001729FBB2743
:100CD000F00DB11D639FAA27F00DB11DAA1F649FDF
:100CE0006627B00DA11D661F829F2227B00DA11D92
:100CF000621F739FB00DA11D621F839FA00D611D18
:100D0000221F749F3327A00D611D231F849F600D38
:100D1000211D822F762F6A2F11249F5750409AF061
:100D2000F1F088234AF0EE0FFF1FBB1F661F771FED
:100D3000881F91505040A9F79E3F510580F00C94B8
:100D4000B6060C9401075F3FE4F3983ED4F3869512
:100D500077956795B795F795E7959F5FC1F7FE2B58
:100D6000880F911D9695879597F9089597F99F6734
:100D700080E870E060E008959FEF80EC0895002423
:100D80000A941616170618060906089500240A94F0
:100D900012161306140605060895092E0394000C76
:100DA00011F4882352F0BB0F40F4BF2B11F460FF05
:100DB00004C06F5F7F4F8F4F9F4F089557FD90582E
:100DC000440F551F59F05F3F71F04795880F97FB0F
:100DD000991F61F09F3F79F08795089512161306C9
:100DE0001406551FF2CF4695F1DF08C016161706F8
:100DF0001806991FF1CF869571056105089408952D
:100E0000E894BB2766277727CB0197F90895A1E2DD
:100E10001A2EAA1BBB1BFD010DC0AA1FBB1FEE1F74
:100E2000FF1FA217B307E407F50720F0A21BB30BBF
:100E3000E40BF50B661F771F881F991F1A9469F73B
:100E400060957095809590959B01AC01BD01CF0197
:100E500008955058BB27AA270E9441070C94CD063D
:100E60000E94BF0638F00E94C60620F039F49F3F6A
:100E700019F426F40C94BC060EF4E095E7FB0C94F0
:100E8000B606E92F0E94DE0658F3BA176207730709
:100E90008407950720F079F4A6F50C9400070EF46A
:100EA000E0950B2EBA2FA02D0B01B90190010C017A
:100EB000CA01A0011124FF27591B99F0593F50F492
:100EC000503E68F11A16F040A22F232F342F4427EA
:100ED000585FF3CF469537952795A795F0405395E2
:100EE000C9F77EF41F16BA0B620B730B840BBAF0B2
:100EF0009150A1F0FF0FBB1F661F771F881FC2F71D
:100F00000EC0BA0F621F731F841F48F48795779530
:100F10006795B795F7959E3F08F0B0CF9395880FEA
:100F200008F09927EE0F9795879508950E94E60699
:100F300088F09F5798F0B92F9927B751B0F0E1F09A
:100F4000660F771F881F991F1AF0BA95C9F714C04A
:100F5000B13091F00E940007B1E008950C940007B1
:100F6000672F782F8827B85F39F0B93FCCF3869583
:100F700077956795B395D9F73EF4909580957095E0
:100F800061957F4F8F4F9F4F08950E94250608F46B
:100F90008FEF08950E942506880B990B0895EE0F98
:0E0FA000FF1F0590F491E02D0994F894FFCF07
:100FAE0000000000FF005F008C004C01BD009B00A4
:100FBE00AF00564D4450565F317C315F564D445014
:100FCE00560A00564D4450455F003A323A007C00B6
:100FDE005F564D445045000D0A006E616E00696EFD
:060FEE0066006F7666004C
:00000001FF
