:100000000C947B000C94A3000C94A3000C94A3000C
:100010000C94A3000C94A3000C94A3000C94A300D4
:100020000C94A3000C94A3000C94A3000C94A300C4
:100030000C94A3000C94A3000C94A3000C94A300B4
:100040000C9450040C94A3000C941E040C94F8031C
:100050000C94A3000C94A3000C94A3000C94A30094
:100060000C94A3000C94A3004E414E494E495459A0
:10007000494E46CDCCCC3D0AD7233C17B7D1387773
:10008000CC2B329595E6241FB14F0A000020410089
:1000900000C84200401C4620BCBE4CCA1B0E5AAED3
:1000A000C59D7400000000240027002A0000000005
:1000B00000250028002B00040404040404040402A6
:1000C00002020202020303030303030102040810F5
:1000D00020408001020408102001020408102000C2
:1000E00000000800020100000304070000000000F7
:1000F000000000009A0411241FBECFEFD8E0DEBF3D
:10010000CDBF22E0ACE4B1E001C01D92A334B20740
:10011000E1F711E0A0E0B1E0E4E3FBE102C005900B
:100120000D92AC34B107D9F710E0CBE7D0E004C0B2
:100130002197FE010E94910BCA37D107C9F70E948F
:10014000D9040C94980D0C940000ECEEF0E024918E
:10015000E8EDF0E09491E4ECF0E0E491EE23C9F0F6
:10016000222339F0233001F1A8F4213019F1223093
:1001700029F1F0E0EE0FFF1FE355FF4FA591B49179
:100180002FB7F894EC91811126C090959E239C93F3
:100190002FBF08952730A9F02830C9F0243049F73F
:1001A000209180002F7D03C0209180002F77209325
:1001B0008000DFCF24B52F7724BDDBCF24B52F7D82
:1001C000FBCF2091B0002F772093B000D2CF2091A9
:1001D000B0002F7DF9CF9E2BDACFEAE5F1E0A089C0
:1001E000B18982E08C93A485B5851C92A685B785DC
:1001F00080E18C93108EA489B58986E08C93A289C6
:10020000B3898C9180618C93A289B3898C91886029
:100210008C93A289B3898C9180688C930288F3892E
:10022000E02D80818F7D80830895AF92BF92CF9221
:10023000DF92EF92FF920F931F93CF93DF936C01A6
:100240007B018B01040F151FEB015E01AE18BF0887
:10025000C017D10759F06991D601ED91FC91019039
:10026000F081E02DC6010995892B79F7C501DF9151
:10027000CF911F910F91FF90EF90DF90CF90BF90A3
:10028000AF900895FC01538D448D252F30E0842FCD
:1002900090E0821B930B541710F0CF9608950197AE
:1002A0000895FC01918D828D981761F0A28DAE0F9B
:1002B000BF2FB11D5D968C91928D9F5F9F73928F22
:1002C00090E008958FEF9FEF0895FC01918D828D4E
:1002D000981731F0828DE80FF11D858D90E008951B
:1002E0008FEF9FEF0895FC01918D228D892F90E073
:1002F000805C9F4F821B91098F73992708958AE52F
:1003000091E00E94730121E0892B09F420E0822F03
:10031000089580E090E0892B29F00E947F018111EF
:100320000C9400000895FC01A48DA80FB92FB11DF5
:10033000A35ABF4F2C91848D90E001968F7399271B
:10034000848FA689B7892C93A089B1898C918370F9
:1003500080648C93938D848D981306C00288F389F2
:10036000E02D80818F7D80830895EF92FF920F931F
:100370001F93CF93DF93EC0181E0888F9B8D8C8D51
:1003800098131AC0E889F989808185FF15C09FB745
:10039000F894EE89FF896083E889F9898081837008
:1003A000806480839FBF81E090E0DF91CF911F91B7
:1003B0000F91FF90EF900895F62E0B8D10E00F5FD8
:1003C0001F4F0F731127E02E8C8D8E110CC00FB6AE
:1003D00007FCFACFE889F989808185FFF5CFCE0146
:1003E0000E949301F1CFEB8DEC0FFD2FF11DE35A2D
:1003F000FF4FF0829FB7F8940B8FEA89FB898081C9
:100400008062CFCFCF93DF93EC01888D8823B9F042
:10041000AA89BB89E889F9898C9185FD03C080810F
:1004200086FD0DC00FB607FCF7CF8C9185FFF2CF8C
:10043000808185FFEDCFCE010E949301E9CFDF914E
:10044000CF9108953FB7F894809151019091520156
:10045000A0915301B091540126B5A89B05C02F3F30
:1004600019F00196A11DB11D3FBFBA2FA92F982FDA
:100470008827BC01CD01620F711D811D911D42E0D5
:10048000660F771F881F991F4A95D1F708952FB7D8
:10049000F89460914D0170914E0180914F019091BF
:1004A00050012FBF08950F931F930E94470260933E
:1004B00062017093630180936401909365018AE502
:1004C00091E00E94510197FF1DC00E9447020091D8
:1004D0006201109163012091640130916501601BFC
:1004E000710B820B930B00915E0110915F012091C3
:1004F0006001309161016017710782079307F8F27C
:100500008FEF9FEF1F910F910895FC010190002044
:10051000E9F73197AF01481B590BBC018AE591E01F
:100520000C9415018F929F92AF92BF920F931F93DD
:10053000CF93DF93CDB7DEB7A1970FB6F894DEBFA8
:100540000FBECDBF19A2423008F44AE08E010F5D04
:100550001F4F842E912CB12CA12CA50194010E9437
:10056000060AE62FB901CA01EA30F4F4E05DD801C9
:10057000EE938D01232B242B252B79F790E080E03F
:10058000109719F0CD010E948502A1960FB6F8943C
:10059000DEBF0FBECDBFDF91CF911F910F91BF90F6
:1005A000AF909F908F900895E95CE1CFCF93DF9358
:1005B000FC01448155814115510599F0EC01808180
:1005C00091814150510955834483BC016F5F7F4F36
:1005D0000E94890DE881F9818C819D81E80FF91FC6
:1005E0001082DF91CF9108954F925F926F927F9228
:1005F0008F929F92AF92BF92CF92DF92EF92FF9233
:100600000F931F93CF936B017C01742EAC019B0160
:100610000E948C0B882399F088E191E0CF911F9183
:100620000F91FF90EF90DF90CF90BF90AF909F9091
:100630008F907F906F905F904F900C948502460151
:100640005701E894B7F82FEF3FEF4FE75FE7C50199
:10065000B4010E948C0B81110DC02FEF3FEF4FE7CB
:100660005FE7C501B4010E94E20818161CF48CE192
:1006700091E0D4CF2FEF3FEF4FE75FE4C701B60122
:100680000E94870B18161CF480E291E0C7CF2FEF71
:100690003FEF4FE75FECC701B6010E94E20887FD1C
:1006A000F3CF20E030E0A901C701B6010E94E208C3
:1006B00010E000E087FF0AC06DE28AE591E00E9449
:1006C000B5018C01F7FAF094F7F8F094C0E060E01F
:1006D00070E080E09FE37C1641F020E030E040E2F3
:1006E00051E40E94E60ACF5FF6CFA70196010E946F
:1006F0007A0A2B013C010E94580B4B015C014AE035
:100700000E9492027C01E00EF11ECC23C1F1C501D2
:10071000B4010E94E7089B01AC01C301B2010E9431
:10072000790A4B015C016EE28AE591E00E94B50115
:10073000E80EF91EC15018F120E030E040E251E42B
:10074000C501B4010E9448092B013C010E94580BCD
:100750004B01B12CA12C4AE0C501B4010E949202C8
:10076000E80EF91EC501B4010E94E7089B01AC0127
:10077000C301B2010E94790A4B015C01DBCFC701C2
:10078000CF911F910F91FF90EF90DF90CF90BF908E
:10079000AF909F908F907F906F905F904F90089553
:1007A0000F931F93CF93DF93EC018881998100977A
:1007B00059F02A813B812617370730F081E0DF911D
:1007C000CF911F910F9108958B016F5F7F4F0E9412
:1007D000BC0C009759F0998388831B830A832C8172
:1007E0003D81232B59F7FC011082E8CF80E0E7CF51
:1007F0001F920F920FB60F9211242F933F934F9396
:100800005F936F937F938F939F93AF93BF93EF9378
:10081000FF938AE591E00E949301FF91EF91BF91D0
:10082000AF919F918F917F916F915F914F913F9188
:100830002F910F900FBE0F901F9018951F920F923F
:100840000FB60F9211242F938F939F93EF93FF93E3
:10085000E0916A01F0916B018081E0917001F0916B
:10086000710182FD1BC09081809173018F5F8F7336
:1008700020917401821741F0E0917301F0E0E65A93
:10088000FE4F958F80937301FF91EF919F918F9110
:100890002F910F900FBE0F901F9018958081F4CF6D
:1008A0001F920F920FB60F9211242F933F938F93A5
:1008B0009F93AF93BF9380914D0190914E01A09172
:1008C0004F01B091500130914C0123E0230F2D379F
:1008D00058F50196A11DB11D20934C0180934D0147
:1008E00090934E01A0934F01B0935001809151011C
:1008F00090915201A0915301B09154010196A11D14
:10090000B11D8093510190935201A0935301B09374
:100910005401BF91AF919F918F913F912F910F9073
:100920000FBE0F901F90189526E8230F0296A11D69
:10093000B11DD2CFEAE5F1E01382128288EE93E096
:10094000A0E0B0E084839583A683B7838AE091E03A
:100950009183808385EC90E09587848784EC90E098
:100960009787868780EC90E0918B808B81EC90E07C
:10097000938B828B82EC90E0958B848B86EC90E05D
:10098000978B868B118E128E138E148EE7EFF1E00B
:100990001682178210861186128613861486158693
:1009A00016861786108A118A128A138A148A158A63
:1009B0000895CF93DF93CDB7DEB728970FB6F8949D
:1009C000DEBF0FBECDBF789484B5826084BD84B590
:1009D000816084BD85B5826085BD85B5816085BD3A
:1009E00080916E00816080936E00109281008091F2
:1009F000810082608093810080918100816080937A
:100A00008100809180008160809380008091B1009E
:100A100084608093B1008091B00081608093B000C9
:100A200080917A00846080937A0080917A0082605D
:100A300080937A0080917A00816080937A0080911F
:100A40007A00806880937A001092C1001092390277
:100A500010923A0210923B0210923C021092F9015D
:100A60001092FA011092FB011092FC010E944702C1
:100A70004B015C012B013C0128EB420E2BE0521E86
:100A8000611C711C0E944702681579058A059B0547
:100A900028F04616570668067906A0F70E9422023B
:100AA0002B013C0148EE842E43E0942EA12CB12C66
:100AB0000E9422026419750986099709683E7340ED
:100AC00081059105A8F331E0831A9108A108B108C6
:100AD00048EE440E43E0541E611C711C81149104C5
:100AE000A104B10429F70E94ED000E94470260931F
:100AF000F9017093FA018093FB019093FC0184E269
:100B000091E00E9485020E9447024B015C012B018B
:100B10003C018AE0480E511C611C711C0E94470276
:100B2000681579058A059B0528F04616570668065C
:100B30007906A0F781E080930D020E94ED00E8EDB8
:100B4000F0E02491E4ECF0E08491882399F090E0C7
:100B5000880F991FFC01ED55FF4FA591B491FC0141
:100B6000E355FF4F859194918FB7F894EC91E22B68
:100B7000EC938FBF80E0282E80E0382E94EF892EF2
:100B800099249394A12CB12C0E944702672B682BC7
:100B9000692B09F4DFC00E944702009156011091B1
:100BA0005701209158013091590160177107820750
:100BB000930708F41EC1009156011091570120912E
:100BC0005801309159016B017C01C01AD10AE20A27
:100BD000F30A970186010A3F11052105310508F442
:100BE000C1C0609356017093570180935801909350
:100BF00059018092050290920602A0920702B092DB
:100C000008021092090210920A0210920B0210922E
:100C10000C028091FD019091FE01A091FF01B09125
:100C200000028093010290930202A0930302B0930A
:100C300004020E9447026093FD017093FE018093BD
:100C4000FF01909300020E9447026093F9017093A4
:100C5000FA018093FB019093FC010E9447022B0153
:100C60003C0185E391E00E9485024AE061E070E08A
:100C700080E090E00E9492028CE391E00E94850265
:100C80004AE0C301B2010E9492028EE391E00E9409
:100C900085028091FD019091FE01A091FF01B0912C
:100CA0000002A3019201281B390B4A0B5B0BCA01FE
:100CB000B9014AE00E9492028EE391E00E9485020F
:100CC0006091FD017091FE018091FF019091000201
:100CD000009101021091020220910302309104025E
:100CE000601B710B820B930B4AE00E94920280E41E
:100CF00091E00E9485020E9447024AE00E9492020F
:100D000082E491E00E94850289E491E00E948502DC
:100D10000E9447026B017C012B013C0132E0430E33
:100D2000511C611C711C0E9447026C157D058E05CB
:100D30009F0528F04616570668067906A0F70E9418
:100D400047026093FD017093FE018093FF01909331
:100D5000000208C00E9447026230710581059105BA
:100D600008F019CF8AE591E00E9473011816190660
:100D70000CF071C01A8219821C821B821E821D8295
:100D800070E060E0CE0101960E94D00329813A8193
:100D9000811138C02115310519F0C9010E94330CA9
:100DA0001A8219821E821D821C821B820E9453029B
:100DB0004D815E8197FD2EC08B33910559F18F8354
:100DC00018868A010F5F1F4FB801CE0101960E945D
:100DD000D003882359F329813A818D819E81BE01F8
:100DE000695F7F4F820F931F0E94820D1E830D83C8
:100DF000DDCF609356017093570180935801909313
:100E00005901D9CE1E821D826BE471E0C9010E9496
:100E1000820DCCCF69817A818AE591E00E9415012B
:100E200089E491E00E9485028D819E81892B21F0C9
:100E3000E981FA81309721F410925501E5E5F1E05E
:100E400080818136B9F0823671F189819A8100976B
:100E500011F00E94330C80E00E94A500211431049F
:100E600009F492CE0E947F01882309F48DCE0E945E
:100E700000008ACECE0101960E94D60289819A8115
:100E8000009769F00E946A0742E00E94F40289E438
:100E900091E00E94850280E00E94A500D6CF60E02C
:100EA00070E0CB01F1CFCE0101960E94D60289817C
:100EB0009A81009759F00E946A0742E00E94F4026A
:100EC00089E491E00E94850281E0E6CF60E070E075
:100ED000CB01F3CF662777270C94770791110C94F9
:100EE000C708803219F089508550C8F70895B0E0DE
:100EF000A0E0EDE7F7E00C94390A5C017B01611595
:100F0000710519F0DB018D939C9385010F5F1F4FD5
:100F1000F501D0818D2F90E00E946E076C01892B26
:100F2000B9F5DD32B9F50F5F1F4FD5011196DC9190
:100F3000C1E05801F1E0AF1AB10843E050E060E7CA
:100F400070E0C5010E94CA08892B69F5680182E03A
:100F5000C80ED11C45E050E06BE670E0C6010E946F
:100F6000CA08892B21F4680197E0C90ED11CE1144D
:100F7000F10419F0D701CD92DC9260E070E080E8D6
:100F80009FEFC111FFC060E070E080E89FE7FAC00A
:100F90005801BBCFDB3229F485010E5F1F4FF501ED
:100FA000D181C0E0C6CF43E050E068E670E0C50103
:100FB0000E94CA08892BE9F0F80110E000E020E067
:100FC00030E0A9015F01B0ED8B2E8D0E89E0881510
:100FD000C8F19C2E689491F88C2F8870C2FF16C0BF
:100FE000811102C00F5F1F4F3196D501DC91C92DD1
:100FF000E9CFE114F10429F00E5F1F4FF7011183CF
:10100000008360E070E080EC9FE7BCC0882311F0B3
:1010100001501109A5E0B0E00E94280A9B01AC0133
:10102000220F331F441F551F280D311D411D511D17
:10103000283999E93907490799E15907A8F2C660A3
:101040009C2ED2CFAEEF8A1206C0C3FD3CC09C2EB0
:10105000689493F8C9CFDF7DD534A9F580818D32AE
:1010600039F4C061DF011296818162E070E006C050
:10107000DF018B32C1F3119661E070E080535D01B6
:10108000A61AB70A8A30F8F4E0E8CE16ECE0DE06DD
:101090005CF4B601660F771F660F771FC60ED71E6A
:1010A000CC0CDD1CC80ED11C5D01FFEFAF1ABF0ACE
:1010B0008C9180538A30A8F1C4FF03C0D194C194AD
:1010C000D1080C0D1D1DC1FF09C0E114F10431F060
:1010D00081E0A81AB108D701AD92BC92CA01B9014A
:1010E0000E94E708C370C33009F490584B015C01BB
:1010F00020E030E0A9010E94E208882309F440C002
:10110000CFE9D0E017FF05C0119501951109C7E897
:10111000D0E06E01B8E1CB1AD10880E2E82EF12CC4
:101120000FC0D501B1CFFE01259135914591549164
:101130000E191F09C501B4010E9448094B015C0149
:10114000D501C4010E151F0574F72497F594E79493
:10115000CC16DD06A9F78A2F880F8B2F881F8F3FAB
:1011600049F020E030E0A901C501B4010E94E20885
:10117000811106C082E290E090933E0280933D028E
:10118000C501B401CDB7DEB7ECE00C94550A992740
:1011900088270895FB01DC014150504088F08D9173
:1011A00081341CF08B350CF4805E659161341CF049
:1011B0006B350CF4605E861B611171F3990B089519
:1011C000881BFCCF0E94240908F481E00895E8946C
:1011D00009C097FB3EF490958095709561957F4F7F
:1011E0008F4F9F4F9923A9F0F92F96E9BB2793952D
:1011F000F695879577956795B795F111F8CFFAF43D
:10120000BB0F11F460FF1BC06F5F7F4F8F4F9F4F6D
:1012100016C0882311F096E911C0772321F09EE8CB
:10122000872F762F05C0662371F096E8862F70E031
:1012300060E02AF09A95660F771F881FDAF7880F0B
:101240009695879597F90895990F0008550FAA0B61
:10125000E0E8FEEF16161706E807F907C0F01216C9
:101260001306E407F50798F0621B730B840B950BCC
:1012700039F40A2661F0232B242B252B21F4089521
:101280000A2609F4A140A6958FEF811D811D0895BE
:101290000E945B090C94CC090E94BE0938F00E94A0
:1012A000C50920F0952311F00C94B5090C94BB09E5
:1012B00011240C94000A0E94DD0970F3959FC1F37C
:1012C000950F50E0551F629FF001729FBB27F00DF4
:1012D000B11D639FAA27F00DB11DAA1F649F662749
:1012E000B00DA11D661F829F2227B00DA11D621F98
:1012F000739FB00DA11D621F839FA00D611D221F52
:10130000749F3327A00D611D231F849F600D211D35
:10131000822F762F6A2F11249F5750409AF0F1F0B8
:1013200088234AF0EE0FFF1FBB1F661F771F881F21
:1013300091505040A9F79E3F510580F00C94B5099B
:101340000C94000A5F3FE4F3983ED4F386957795BA
:101350006795B795F795E7959F5FC1F7FE2B880FC7
:10136000911D9695879597F9089597F99F6780E85D
:1013700070E060E008959FEF80EC089500240A94E7
:101380001616170618060906089500240A94121660
:101390001306140605060895092E0394000C11F493
:1013A000882352F0BB0F40F4BF2B11F460FF04C040
:1013B0006F5F7F4F8F4F9F4F089557FD9058440F99
:1013C000551F59F05F3F71F04795880F97FB991FA4
:1013D00061F09F3F79F08795089512161306140661
:1013E000551FF2CF4695F1DF08C0161617061806EE
:1013F000991FF1CF86957105610508940895E894C9
:10140000BB2766277727CB0197F90895A1E21A2E0B
:10141000AA1BBB1BFD010DC0AA1FBB1FEE1FFF1F98
:10142000A217B307E407F50720F0A21BB30BE40BE8
:10143000F50B661F771F881F991F1A9469F760952F
:101440007095809590959B01AC01BD01CF010895E9
:101450000E946A0AA59F900DB49F900DA49F800DD5
:10146000911D112408952F923F924F925F926F9297
:101470007F928F929F92AF92BF92CF92DF92EF9224
:10148000FF920F931F93CF93DF93CDB7DEB7CA1BA5
:10149000DB0B0FB6F894DEBF0FBECDBF09942A88D0
:1014A000398848885F846E847D848C849B84AA8478
:1014B000B984C884DF80EE80FD800C811B81AA8105
:1014C000B981CE0FD11D0FB6F894DEBF0FBECDBFD0
:1014D000ED010895A29FB001B39FC001A39F700DBD
:1014E000811D1124911DB29F700D811D1124911D2C
:1014F00008955058BB27AA270E94910A0C94CC0942
:101500000E94BE0938F00E94C50920F039F49F3FBF
:1015100019F426F40C94BB090EF4E095E7FB0C9447
:10152000B509E92F0E94DD0958F3BA17620773075E
:101530008407950720F079F4A6F50C94FF090EF4C2
:10154000E0950B2EBA2FA02D0B01B90190010C01D3
:10155000CA01A0011124FF27591B99F0593F50F4EB
:10156000503E68F11A16F040A22F232F342F442743
:10157000585FF3CF469537952795A795F04053953B
:10158000C9F77EF41F16BA0B620B730B840BBAF00B
:101590009150A1F0FF0FBB1F661F771F881FC2F776
:1015A0000EC0BA0F621F731F841F48F4879577958A
:1015B0006795B795F7959E3F08F0B0CF9395880F44
:1015C00008F09927EE0F9795879508950E94FA0ADB
:1015D0000C94CC090E94C50958F00E94BE0940F045
:1015E00029F45F3F29F00C94B50951110C94000ABD
:1015F0000C94BB090E94DD0968F39923B1F35523CC
:1016000091F3951B550BBB27AA2762177307840715
:1016100038F09F5F5F4F220F331F441FAA1FA9F3AB
:1016200035D00E2E3AF0E0E832D091505040E69599
:10163000001CCAF72BD0FE2F29D0660F771F881FFA
:10164000BB1F261737074807AB07B0E809F0BB0BED
:10165000802DBF01FF2793585F4F3AF09E3F510501
:1016600078F00C94B5090C94000A5F3FE4F3983EBF
:10167000D4F3869577956795B795F7959F5FC9F7EA
:10168000880F911D9695879597F90895E1E0660F6B
:10169000771F881FBB1F621773078407BA0720F0E4
:1016A000621B730B840BBA0BEE1F88F7E09508954D
:1016B0000E94E50988F09F5798F0B92F9927B751F4
:1016C000B0F0E1F0660F771F881F991F1AF0BA95E6
:1016D000C9F714C0B13091F00E94FF09B1E008953C
:1016E0000C94FF09672F782F8827B85F39F0B93F2E
:1016F000CCF3869577956795B395D9F73EF4909599
:101700008095709561957F4F8F4F9F4F08950E94F0
:10171000240908F48FEF08950E942409880B990B7F
:101720000895EE0FFF1F0590F491E02D09940F939B
:101730001F93CF93DF938230910510F482E090E005
:10174000E0914102F091420230E020E0B0E0A0E000
:10175000309799F42115310509F44AC0281B390B3B
:1017600024303105D8F58A819B816115710589F195
:10177000FB0193838283FE0111C04081518102816C
:10178000138148175907E0F04817590799F4109743
:1017900061F012960C93129713961C933296CF0118
:1017A000DF91CF911F910F91089500934102109303
:1017B0004202F4CF2115310551F04217530738F09A
:1017C000A901DB019A01BD01DF01F801C1CFEF01E1
:1017D000F9CF9093420280934102CDCFFE01E20FF8
:1017E000F31F819391932250310939832883D7CFF6
:1017F00020913F0230914002232B41F420910201BD
:10180000309103013093400220933F022091000168
:10181000309101012115310541F42DB73EB74091BA
:10182000040150910501241B350BE0913F02F0911A
:101830004002E217F307A0F42E1B3F0B28173907CD
:1018400078F0AC014E5F5F4F2417350748F04E0F1C
:101850005F1F5093400240933F02819391939FCF2B
:10186000F0E0E0E09CCFCF93DF930097E9F0FC013C
:10187000329713821282A0914102B0914202ED018F
:1018800030E020E01097A1F420813181820F931F76
:1018900020913F02309140022817390709F061C0BA
:1018A000F0934002E0933F02DF91CF910895EA0167
:1018B000CE17DF07E8F54A815B819E01411551058E
:1018C000B1F7E901FB83EA8349915991C40FD51F10
:1018D000EC17FD0761F4808191810296840F951FBA
:1018E000E90199838883828193819B838A83F0E0D5
:1018F000E0E012968D919C9113970097B9F52D9188
:101900003C911197CD010296820F931F20913F02C7
:10191000309140022817390739F6309751F5109267
:10192000420210924102B0934002A0933F02BCCF0A
:10193000D383C28340815181840F951FC817D90773
:1019400061F44E5F5F4F88819981480F591F518321
:1019500040838A819B81938382832115310509F01D
:10196000B0CFF0934202E09341029ECFFD01DC0133
:10197000C0CF13821282D7CFB0E0A0E0E2ECFCE04F
:101980000C94350A8C01009751F4CB010E94970BFF
:101990008C01C801CDB7DEB7E0E10C94510AFC011F
:1019A000E60FF71F9C0122503109E217F30708F4F4
:1019B0009DC0D901CD91DC911197C617D70798F03A
:1019C000C530D10530F3CE0104978617970708F389
:1019D000C61BD70B2297C193D1936D937C93CF01F4
:1019E0000E94330CD6CF5B01AC1ABD0A4C018C0EA1
:1019F0009D1EA0914102B0914202512C412CF12C2C
:101A0000E12C109731F580913F02909140028815AA
:101A1000990509F05CC04616570608F058C0809139
:101A2000000190910101009741F48DB79EB740915C
:101A3000040150910501841B950BE817F90708F084
:101A400055C0F0934002E0933F02F9017183608337
:101A5000A0CF8D919C91119712966C90129713962E
:101A60007C901397A815B90559F56C0142E0C40E96
:101A7000D11CCA14DB0420F1AC014A195B09DA015C
:101A80001296159780F06282738251834083D90148
:101A90006D937C93E114F10471F0D7011396FC93DC
:101AA000EE93129776CF22968C0F9D1FF9019183AA
:101AB0008083F301EFCFF0934202E093410269CFBC
:101AC0004816590608F42C017D01D3019ACFCB01A9
:101AD0000E94970B7C01009749F0AE01B8010E946B
:101AE000790DC8010E94330C870153CF10E000E04C
:101AF00050CFFB01DC0102C001900D9241505040DB
:101B0000D8F70895FB01DC0101900D920020E1F768
:101B10000895FB01DC014150504048F001900D92C6
:101B20000020C9F701C01D9241505040E0F70895D0
:041B3000F894FFCF57
:101B340000004302800000000000B50115014201CD
:101B440002027301510165016E616E00696E6600E7
:101B54006F766600564D4450565F317C315F564D6A
:101B64004450560A00564D4450455F003A323A00FC
:0C1B74007C005F564D445045000D0A00F7
:00000001FF
