:100000000C947B000C94A3000C94A3000C94A3000C
:100010000C94A3000C94A3000C94A3000C94A300D4
:100020000C94A3000C94A3000C94A3000C94A300C4
:100030000C94A3000C94A3000C94A3000C94A300B4
:100040000C943E040C94A3000C940C040C94E60352
:100050000C94A3000C94A3000C94A3000C94A30094
:100060000C94A3000C94A3004E414E494E495459A0
:10007000494E46CDCCCC3D0AD7233C17B7D1387773
:10008000CC2B329595E6241FB14F0A000020410089
:1000900000C84200401C4620BCBE4CCA1B0E5AAED3
:1000A000C59D7400000000240027002A0000000005
:1000B00000250028002B00040404040404040402A6
:1000C00002020202020303030303030102040810F5
:1000D00020408001020408102001020408102000C2
:1000E00000000800020100000304070000000000F7
:1000F00000000000880411241FBECFEFD8E0DEBF4F
:10010000CDBF22E0ACE4B1E001C01D92A734B2073C
:10011000E1F711E0A0E0B1E0ECE4FAE102C0059003
:100120000D92AC34B107D9F710E0CBE7D0E004C0B2
:100130002197FE010E941D0BCA37D107C9F70E9403
:10014000C7040C94240D0C940000ECEEF0E0249114
:10015000E8EDF0E09491E4ECF0E0E491EE23C9F0F6
:10016000222339F0233001F1A8F4213019F1223093
:1001700029F1F0E0EE0FFF1FE355FF4FA591B49179
:100180002FB7F894EC91811126C090959E239C93F3
:100190002FBF08952730A9F02830C9F0243049F73F
:1001A000209180002F7D03C0209180002F77209325
:1001B0008000DFCF24B52F7724BDDBCF24B52F7D82
:1001C000FBCF2091B0002F772093B000D2CF2091A9
:1001D000B0002F7DF9CF9E2BDACFEEE5F1E0A089BC
:1001E000B18982E08C93A485B5851C92A685B785DC
:1001F00080E18C93108EA489B58986E08C93A289C6
:10020000B3898C9180618C93A289B3898C91886029
:100210008C93A289B3898C9180688C930288F3892E
:10022000E02D80818F7D80830895AF92BF92CF9221
:10023000DF92EF92FF920F931F93CF93DF936C01A6
:100240007B018B01040F151FEB015E01AE18BF0887
:10025000C017D10759F06991D601ED91FC91019039
:10026000F081E02DC6010995892B79F7C501DF9151
:10027000CF911F910F91FF90EF90DF90CF90BF90A3
:10028000AF900895FC01538D448D252F30E0842FCD
:1002900090E0821B930B541710F0CF9608950197AE
:1002A0000895FC01918D828D981761F0A28DAE0F9B
:1002B000BF2FB11D5D968C91928D9F5F9F73928F22
:1002C00090E008958FEF9FEF0895FC01918D828D4E
:1002D000981731F0828DE80FF11D858D90E008951B
:1002E0008FEF9FEF0895FC01918D228D892F90E073
:1002F000805C9F4F821B91098F73992708958EE52B
:1003000091E00E94730121E0892B09F420E0822F03
:10031000089580E090E0892B29F00E947F018111EF
:100320000C9400000895FC01A48DA80FB92FB11DF5
:10033000A35ABF4F2C91848D90E001968F7399271B
:10034000848FA689B7892C93A089B1898C918370F9
:1003500080648C93938D848D981306C00288F389F2
:10036000E02D80818F7D80830895EF92FF920F931F
:100370001F93CF93DF93EC0181E0888F9B8D8C8D51
:1003800098131AC0E889F989808185FF15C09FB745
:10039000F894EE89FF896083E889F9898081837008
:1003A000806480839FBF81E090E0DF91CF911F91B7
:1003B0000F91FF90EF900895F62E0B8D10E00F5FD8
:1003C0001F4F0F731127E02E8C8D8E110CC00FB6AE
:1003D00007FCFACFE889F989808185FFF5CFCE0146
:1003E0000E949301F1CFEB8DEC0FFD2FF11DE35A2D
:1003F000FF4FF0829FB7F8940B8FEA89FB898081C9
:100400008062CFCFCF93DF93EC01888D8823B9F042
:10041000AA89BB89E889F9898C9185FD03C080810F
:1004200086FD0DC00FB607FCF7CF8C9185FFF2CF8C
:10043000808185FFEDCFCE010E949301E9CFDF914E
:10044000CF9108953FB7F894809151019091520156
:10045000A0915301B091540126B5A89B05C02F3F30
:1004600019F00196A11DB11D3FBFBA2FA92F982FDA
:100470008827BC01CD01620F711D811D911D42E0D5
:10048000660F771F881F991F4A95D1F708952FB7D8
:10049000F89460914D0170914E0180914F019091BF
:1004A00050012FBF08950F931F930E94470260933E
:1004B00066017093670180936801909369018EE5EE
:1004C00091E00E94510197FF1DC00E9447020091D8
:1004D0006601109167012091680130916901601BEC
:1004E000710B820B930B00916201109163012091BB
:1004F0006401309165016017710782079307F8F274
:100500008FEF9FEF1F910F910895FC010190002044
:10051000E9F73197AF01481B590BBC018EE591E01B
:100520000C9415018F929F92AF92BF920F931F93DD
:10053000CF93DF93CDB7DEB7A1970FB6F894DEBFA8
:100540000FBECDBF19A2423008F44AE08E010F5D04
:100550001F4F842E912CB12CA12CA50194010E9437
:10056000040AE62FB901CA01EA30F4F4E05DD801CB
:10057000EE938D01232B242B252B79F790E080E03F
:10058000109719F0CD010E948502A1960FB6F8943C
:10059000DEBF0FBECDBFDF91CF911F910F91BF90F6
:1005A000AF909F908F900895E95CE1CFCF93DF9358
:1005B000FC01448155814115510599F0EC01808180
:1005C00091814150510955834483BC016F5F7F4F36
:1005D0000E94150DE881F9818C819D81E80FF91F3A
:1005E0001082DF91CF9108954F925F926F927F9228
:1005F0008F929F92AF92BF92CF92DF92EF92FF9233
:100600006B017C01AC019B010E94180B8823C1F097
:1006100088E191E00E9485027C0184E291E00E94E1
:1006200085028E0D9F1DFF90EF90DF90CF90BF90C1
:10063000AF909F908F907F906F905F904F900895B4
:1006400046015701E894B7F82FEF3FEF4FE75FE718
:10065000C501B4010E94180B81110DC02FEF3FEFAF
:100660004FE75FE7C501B4010E94E00818161CF4CB
:100670008CE191E0CFCF2FEF3FEF4FE75FE4C70171
:10068000B6010E94130B18161CF480E291E0C2CF51
:100690002FEF3FEF4FE75FECC701B6010E94E00884
:1006A00087FDF3CF20E030E0A901C701B6010E9429
:1006B000E008B12CA12C87FF0AC06DE28EE591E025
:1006C0000E94B5015C01F7FAF094F7F8F0942AE083
:1006D00037ED43EA5BE3C701B6010E94780A2B01BC
:1006E0003C010E94E40A6B017C010E94E5089B0129
:1006F000AC01C301B2010E94770A2B013C014AE020
:10070000C701B6010E9492027C01EA0CFB1C6EE25A
:100710008EE591E00E94B501E80EF91E20E030E080
:1007200040E251E4C301B2010E9446092B013C01A1
:100730000E94E40A4B01B12CA12C4AE0C501B4018E
:100740000E949202E80EF91EC501B4010E94E5085C
:100750009B01AC01C301B2010E94770A20E030E0A6
:1007600040E251E40E9446090E94E40A90E080E0E1
:100770004AE00E949202E80EF91E4FCF0F931F939A
:10078000CF93DF93EC0188819981009759F02A81FA
:100790003B812617370730F081E0DF91CF911F9121
:1007A0000F9108958B016F5F7F4F0E94480C009757
:1007B00059F0998388831B830A832C813D81232BE5
:1007C00059F7FC011082E8CF80E0E7CF1F920F922B
:1007D0000FB60F9211242F933F934F935F936F9314
:1007E0007F938F939F93AF93BF93EF93FF938EE588
:1007F00091E00E949301FF91EF91BF91AF919F9182
:100800008F917F916F915F914F913F912F910F90B9
:100810000FBE0F901F9018951F920F920FB60F9258
:1008200011242F938F939F93EF93FF93E0916E0189
:10083000F0916F018081E0917401F091750182FD6A
:100840001BC09081809177018F5F8F732091780119
:10085000821741F0E0917701F0E0E25AFE4F958F68
:1008600080937701FF91EF919F918F912F910F903E
:100870000FBE0F901F9018958081F4CF1F920F929A
:100880000FB60F9211242F933F938F939F93AF93A3
:10089000BF9380914D0190914E01A0914F01B09175
:1008A000500130914C0123E0230F2D3758F501966C
:1008B000A11DB11D20934C0180934D0190934E01D9
:1008C000A0934F01B093500180915101909152013A
:1008D000A0915301B09154010196A11DB11D8093C7
:1008E000510190935201A0935301B0935401BF91D1
:1008F000AF919F918F913F912F910F900FBE0F90CD
:100900001F90189526E8230F0296A11DB11DD2CF86
:10091000EEE5F1E01382128288EE93E0A0E0B0E011
:1009200084839583A683B7838AE091E09183808353
:1009300085EC90E09587848784EC90E097878687A4
:1009400080EC90E0918B808B81EC90E0938B828B9C
:1009500082EC90E0958B848B86EC90E0978B868B75
:10096000118E128E138E148EEBEFF1E01682178229
:1009700010861186128613861486158616861786AB
:10098000108A118A128A138A148A158A0895CF93BD
:10099000DF93CDB7DEB728970FB6F894DEBF0FBE52
:1009A000CDBF789484B5826084BD84B5816084BDF8
:1009B00085B5826085BD85B5816085BD80916E00FD
:1009C000816080936E00109281008091810082602E
:1009D000809381008091810081608093810080916B
:1009E00080008160809380008091B100846080935A
:1009F000B1008091B00081608093B00080917A0056
:100A0000846080937A0080917A00826080937A007B
:100A100080917A00816080937A0080917A0080686A
:100A200080937A001092C10010923D0210923E0213
:100A300010923F02109240021092FD011092FE01AE
:100A40001092FF01109200020E9447024B015C01CC
:100A50002B013C0128EB420E2BE0521E611C711C45
:100A60000E944702681579058A059B0528F04616FD
:100A7000570668067906A0F70E9422022B013C0166
:100A800048EE842E43E0942EA12CB12C0E94220229
:100A90006419750986099709683E734081059105B7
:100AA000A8F331E0831A9108A108B10848EE440E7A
:100AB00043E0541E611C711C81149104A104B10413
:100AC00029F70E94ED000E9447026093FD01709398
:100AD000FE018093FF019093000287E291E00E9463
:100AE00085020E9447024B015C012B013C018AE018
:100AF000480E511C611C711C0E9447026815790543
:100B00008A059B0528F04616570668067906A0F761
:100B100081E0809311020E94ED00E8EDF0E0249165
:100B2000E4ECF0E08491882399F090E0880F991F1D
:100B3000FC01ED55FF4FA591B491FC01E355FF4F2A
:100B4000859194918FB7F894EC91E22BEC938FBF41
:100B500080E0282E80E0382E94EF892E99249394FB
:100B6000A12CB12C0E944702672B682B692B09F43A
:100B7000DFC00E94470200915A0110915B01209151
:100B80005C0130915D01601771078207930708F4DB
:100B90001EC100915A0110915B0120915C013091BE
:100BA0005D016B017C01C01AD10AE20AF30A9701C8
:100BB00086010A3F11052105310508F4C1C0609383
:100BC0005A0170935B0180935C0190935D01809268
:100BD000090290920A02A0920B02B0920C021092AB
:100BE0000D0210920E0210920F02109210028091CC
:100BF000010290910202A0910302B091040280933D
:100C0000050290930602A0930702B09308020E9487
:100C10004702609301027093020280930302909353
:100C200004020E9447026093FD017093FE018093CD
:100C3000FF01909300020E9447022B013C0188E3D0
:100C400091E00E9485024AE061E070E080E090E07F
:100C50000E9492028FE391E00E9485024AE0C30164
:100C6000B2010E94920281E491E00E94850280918B
:100C7000010290910202A0910302B0910402A3012B
:100C80009201281B390B4A0B5B0BCA01B9014AE0E0
:100C90000E94920281E491E00E948502609101022B
:100CA000709102028091030290910402009105026A
:100CB000109106022091070230910802601B710B0F
:100CC000820B930B4AE00E94920283E491E00E941F
:100CD00085020E9447024AE00E94920285E491E068
:100CE0000E94850284E291E00E9485020E944702F0
:100CF0006B017C012B013C0132E0430E511C611C55
:100D0000711C0E9447026C157D058E059F0528F019
:100D10004616570668067906A0F70E9447026093B8
:100D2000010270930202809303029093040208C0B0
:100D30000E944702623071058105910508F019CFC4
:100D40008EE591E00E947301181619060CF071C02F
:100D50001A8219821C821B821E821D8270E060E052
:100D6000CE0101960E94BE0329813A81811138C0CB
:100D70002115310519F0C9010E94BF0B1A82198291
:100D80001E821D821C821B820E9453024D815E8145
:100D900097FD2EC08B33910559F18F8318868A01F8
:100DA0000F5F1F4FB801CE0101960E94BE0388233A
:100DB00059F329813A818D819E81BE01695F7F4F00
:100DC000820F931F0E940E0D1E830D83DDCF609353
:100DD0005A0170935B0180935C0190935D01D9CEC1
:100DE0001E821D8266E271E0C9010E940E0DCCCF09
:100DF00069817A818EE591E00E94150184E291E09B
:100E00000E9485028D819E81892B21F0E981FA81E2
:100E1000309721F410925501E5E5F1E080818136AB
:100E200009F18236D9F189819A81009711F00E94E7
:100E3000BF0B80E00E94A5006091560170915701A0
:100E400080915801909159010E94F40221143104BB
:100E500009F488CE0E947F01882309F483CE0E9482
:100E6000000080CECE0101960E94D60289819A812F
:100E7000009781F00E9468076093560170935701B4
:100E800080935801909359010E94F40280E00E94DF
:100E9000A500C9CF60E070E0CB01EECFCE01019696
:100EA0000E94D60289819A81009771F00E9468079A
:100EB00060935601709357018093580190935901A4
:100EC0000E94F40281E0E3CF60E070E0CB01F0CF5C
:100ED000662777270C94750791110C94C50880320A
:100EE00019F089508550C8F70895B0E0A0E0EBE70D
:100EF000F7E00C94370A5C017B016115710519F06C
:100F0000DB018D939C9385010F5F1F4FF501D0810D
:100F10008D2F90E00E946C076C01892BB9F5DD32B2
:100F2000B9F50F5F1F4FD5011196DC91C1E0580153
:100F3000F1E0AF1AB10843E050E060E770E0C501AE
:100F40000E94C808892B69F5680182E0C80ED11C8F
:100F500045E050E06BE670E0C6010E94C808892BAE
:100F600021F4680197E0C90ED11CE114F10419F0D5
:100F7000D701CD92DC9260E070E080E89FEFC11174
:100F8000FFC060E070E080E89FE7FAC05801BBCF87
:100F9000DB3229F485010E5F1F4FF501D181C0E0DE
:100FA000C6CF43E050E068E670E0C5010E94C80883
:100FB000892BE9F0F80110E000E020E030E0A90121
:100FC0005F01B0ED8B2E8D0E89E08815C8F19C2E47
:100FD000689491F88C2F8870C2FF16C0811102C0EE
:100FE0000F5F1F4F3196D501DC91C92DE9CFE11478
:100FF000F10429F00E5F1F4FF7011183008360E0B9
:1010000070E080EC9FE7BCC0882311F0015011090B
:10101000A5E0B0E00E94260A9B01AC01220F331F1D
:10102000441F551F280D311D411D511D283999E9B7
:101030003907490799E15907A8F2C6609C2ED2CF1B
:10104000AEEF8A1206C0C3FD3CC09C2E689493F894
:10105000C9CFDF7DD534A9F580818D3239F4C061E7
:10106000DF011296818162E070E006C0DF018B3201
:10107000C1F3119661E070E080535D01A61AB70AD2
:101080008A30F8F4E0E8CE16ECE0DE065CF4B60157
:10109000660F771F660F771FC60ED71ECC0CDD1CA0
:1010A000C80ED11C5D01FFEFAF1ABF0A8C918053AF
:1010B0008A30A8F1C4FF03C0D194C194D1080C0DAB
:1010C0001D1DC1FF09C0E114F10431F081E0A81A2F
:1010D000B108D701AD92BC92CA01B9010E94E508DE
:1010E000C370C33009F490584B015C0120E030E03C
:1010F000A9010E94E008882309F440C0CFE9D0E0AC
:1011000017FF05C0119501951109C7E8D0E06E01E0
:10111000B8E1CB1AD10880E2E82EF12C0FC0D5013E
:10112000B1CFFE0125913591459154910E191F09BA
:10113000C501B4010E9446094B015C01D501C401FF
:101140000E151F0574F72497F594E794CC16DD0669
:10115000A9F78A2F880F8B2F881F8F3F49F020E037
:1011600030E0A901C501B4010E94E008811106C068
:1011700082E290E09093420280934102C501B40163
:10118000CDB7DEB7ECE00C94530A99278827089571
:10119000FB01DC014150504088F08D9181341CF0FE
:1011A0008B350CF4805E659161341CF06B350CF46A
:1011B000605E861B611171F3990B0895881BFCCF4B
:1011C0000E94220908F481E00895E89409C097FB81
:1011D0003EF490958095709561957F4F8F4F9F4F0E
:1011E0009923A9F0F92F96E9BB279395F695879552
:1011F00077956795B795F111F8CFFAF4BB0F11F415
:1012000060FF1BC06F5F7F4F8F4F9F4F16C08823BB
:1012100011F096E911C0772321F09EE8872F762FF1
:1012200005C0662371F096E8862F70E060E02AF032
:101230009A95660F771F881FDAF7880F969587951E
:1012400097F90895990F0008550FAA0BE0E8FEEFF3
:1012500016161706E807F907C0F012161306E4077A
:10126000F50798F0621B730B840B950B39F40A2673
:1012700061F0232B242B252B21F408950A2609F451
:10128000A140A6958FEF811D811D08950E945909E7
:101290000C94CA090E94BC0938F00E94C30920F0CE
:1012A000952311F00C94B3090C94B90911240C94F2
:1012B000FE090E94DB0970F3959FC1F3950F50E082
:1012C000551F629FF001729FBB27F00DB11D639FF8
:1012D000AA27F00DB11DAA1F649F6627B00DA11D9E
:1012E000661F829F2227B00DA11D621F739FB00D44
:1012F000A11D621F839FA00D611D221F749F3327B4
:10130000A00D611D231F849F600D211D822F762F4C
:101310006A2F11249F5750409AF0F1F088234AF029
:10132000EE0FFF1FBB1F661F771F881F9150504095
:10133000A9F79E3F510580F00C94B3090C94FE0967
:101340005F3FE4F3983ED4F3869577956795B7951C
:10135000F795E7959F5FC1F7FE2B880F911D969536
:10136000879597F9089597F99F6780E870E060E0A6
:1013700008959FEF80EC089500240A94161617062E
:1013800018060906089500240A9412161306140676
:1013900005060895092E0394000C11F4882352F0D9
:1013A000BB0F40F4BF2B11F460FF04C06F5F7F4F91
:1013B0008F4F9F4F089557FD9058440F551F59F078
:1013C0005F3F71F04795880F97FB991F61F09F3F32
:1013D00079F087950895121613061406551FF2CF5B
:1013E0004695F1DF08C0161617061806991FF1CFAB
:1013F00086957105610508940895E894BB276627D2
:101400007727CB0197F90895A1E21A2EAA1BBB1BDF
:10141000FD010DC0AA1FBB1FEE1FFF1FA217B307C0
:10142000E407F50720F0A21BB30BE40BF50B661FD6
:10143000771F881F991F1A9469F76095709580959A
:1014400090959B01AC01BD01CF0108950E94680AEF
:10145000A59F900DB49F900DA49F800D911D112408
:1014600008952F923F924F925F926F927F928F9248
:101470009F92AF92BF92CF92DF92EF92FF920F9323
:101480001F93CF93DF93CDB7DEB7CA1BDB0B0FB62D
:10149000F894DEBF0FBECDBF09942A8839884888EA
:1014A0005F846E847D848C849B84AA84B984C88480
:1014B000DF80EE80FD800C811B81AA81B981CE0F77
:1014C000D11D0FB6F894DEBF0FBECDBFED0108955C
:1014D000A29FB001B39FC001A39F700D811D112475
:1014E000911DB29F700D811D1124911D08955058BA
:1014F000BB27AA270E948F0A0C94CA090E94BC0924
:1015000038F00E94C30920F039F49F3F19F426F403
:101510000C94B9090EF4E095E7FB0C94B309E92F9C
:101520000E94DB0958F3BA1762077307840795070F
:1015300020F079F4A6F50C94FD090EF4E0950B2E3D
:10154000BA2FA02D0B01B90190010C01CA01A00115
:101550001124FF27591B99F0593F50F4503E68F170
:101560001A16F040A22F232F342F4427585FF3CFB1
:10157000469537952795A795F0405395C9F77EF482
:101580001F16BA0B620B730B840BBAF09150A1F0CB
:10159000FF0FBB1F661F771F881FC2F70EC0BA0F51
:1015A000621F731F841F48F4879577956795B795D9
:1015B000F7959E3F08F0B0CF9395880F08F09927D4
:1015C000EE0F9795879508950E94E30988F09F573D
:1015D00098F0B92F9927B751B0F0E1F0660F771F57
:1015E000881F991F1AF0BA95C9F714C0B13091F04D
:1015F0000E94FD09B1E008950C94FD09672F782F32
:101600008827B85F39F0B93FCCF386957795679511
:10161000B395D9F73EF490958095709561957F4F7D
:101620008F4F9F4F08950E94220908F48FEF08956D
:101630000E942209880B990B0895EE0FFF1F059059
:10164000F491E02D09940F931F93CF93DF93823091
:10165000910510F482E090E0E0914502F09146029D
:1016600030E020E0B0E0A0E0309799F4211531059A
:1016700009F44AC0281B390B24303105D8F58A817A
:101680009B816115710589F1FB0193838283FE01C2
:1016900011C0408151810281138148175907E0F040
:1016A0004817590799F4109761F012960C93129706
:1016B00013961C933296CF01DF91CF911F910F911A
:1016C00008950093450210934602F4CF2115310589
:1016D00051F04217530738F0A901DB019A01BD010F
:1016E000DF01F801C1CFEF01F9CF9093460280935B
:1016F0004502CDCFFE01E20FF31F8193919322505B
:10170000310939832883D7CF209143023091440295
:10171000232B41F4209102013091030130934402C4
:1017200020934302209100013091010121153105E0
:1017300041F42DB73EB74091040150910501241B9F
:10174000350BE0914302F0914402E217F307A0F455
:101750002E1B3F0B2817390778F0AC014E5F5F4F07
:101760002417350748F04E0F5F1F509344024093F3
:101770004302819391939FCFF0E0E0E09CCFCF9321
:10178000DF930097E9F0FC01329713821282A09157
:101790004502B0914602ED0130E020E01097A1F43F
:1017A00020813181820F931F2091430230914402A6
:1017B0002817390709F061C0F0934402E09343020F
:1017C000DF91CF910895EA01CE17DF07E8F54A814E
:1017D0005B819E0141155105B1F7E901FB83EA8365
:1017E00049915991C40FD51FEC17FD0761F4808111
:1017F00091810296840F951FE901998388838281E4
:1018000093819B838A83F0E0E0E012968D919C9116
:1018100013970097B9F52D913C911197CD01029640
:10182000820F931F209143023091440228173907F9
:1018300039F6309751F51092460210924502B09356
:101840004402A0934302BCCFD383C2834081518121
:10185000840F951FC817D90761F44E5F5F4F8881C9
:101860009981480F591F518340838A819B819383BB
:1018700082832115310509F0B0CFF0934602E09341
:1018800045029ECFFD01DC01C0CF13821282D7CF6B
:10189000B0E0A0E0EEE4FCE00C94330A8C01009789
:1018A00051F4CB010E94230B8C01C801CDB7DEB7E8
:1018B000E0E10C944F0AFC01E60FF71F9C01225057
:1018C0003109E217F30708F49DC0D901CD91DC91ED
:1018D0001197C617D70798F0C530D10530F3CE0160
:1018E00004978617970708F3C61BD70B2297C19357
:1018F000D1936D937C93CF010E94BF0BD6CF5B0138
:10190000AC1ABD0A4C018C0E9D1EA0914502B091EF
:101910004602512C412CF12CE12C109731F580918D
:101920004302909144028815990509F05CC046165F
:10193000570608F058C0809100019091010100976E
:1019400041F48DB79EB74091040150910501841B6D
:10195000950BE817F90708F055C0F0934402E0939F
:101960004302F90171836083A0CF8D919C911197FF
:1019700012966C90129713967C901397A815B90540
:1019800059F56C0142E0C40ED11CCA14DB0420F1ED
:10199000AC014A195B09DA011296159780F0628250
:1019A000738251834083D9016D937C93E114F104D8
:1019B00071F0D7011396FC93EE93129776CF22968F
:1019C0008C0F9D1FF90191838083F301EFCFF0937A
:1019D0004602E093450269CF4816590608F42C01E7
:1019E0007D01D3019ACFCB010E94230B7C0100978C
:1019F00049F0AE01B8010E94050DC8010E94BF0B5D
:101A0000870153CF10E000E050CFFB01DC0102C0A2
:101A100001900D9241505040D8F70895FB01DC0130
:101A200001900D920020E1F70895FB01DC01415087
:101A3000504048F001900D920020C9F701C01D925E
:0C1A400041505040E0F70895F894FFCFAB
:101A4C0000004702800000000000B50115014201B2
:101A5C0002027301510165016E616E00696E6600D0
:101A6C006F7666000D0A00564D4450565F317C313E
:101A7C005F564D4450560A00564D4450455F003A4F
:0C1A8C00323A007C005F564D445045008B
:107E0000112484B714BE81FFF0D085E080938100F7
:107E100082E08093C00088E18093C10086E0809377
:107E2000C20080E18093C4008EE0C9D0259A86E02C
:107E300020E33CEF91E0309385002093840096BBD3
:107E4000B09BFECF1D9AA8958150A9F7CC24DD24C4
:107E500088248394B5E0AB2EA1E19A2EF3E0BF2EE7
:107E6000A2D0813461F49FD0082FAFD0023811F036
:107E7000013811F484E001C083E08DD089C08234E0
:107E800011F484E103C0853419F485E0A6D080C0E4
:107E9000853579F488D0E82EFF2485D0082F10E0AE
:107EA000102F00270E291F29000F111F8ED06801E7
:107EB0006FC0863521F484E090D080E0DECF843638
:107EC00009F040C070D06FD0082F6DD080E0C81688
:107ED00080E7D80618F4F601B7BEE895C0E0D1E017
:107EE00062D089930C17E1F7F0E0CF16F0E7DF06D8
:107EF00018F0F601B7BEE89568D007B600FCFDCFD4
:107F0000A601A0E0B1E02C9130E011968C91119780
:107F100090E0982F8827822B932B1296FA010C0160
:107F200087BEE89511244E5F5F4FF1E0A038BF0790
:107F300051F7F601A7BEE89507B600FCFDCF97BE46
:107F4000E89526C08437B1F42ED02DD0F82E2BD052
:107F50003CD0F601EF2C8F010F5F1F4F84911BD097
:107F6000EA94F801C1F70894C11CD11CFA94CF0C13
:107F7000D11C0EC0853739F428D08EE10CD085E9AC
:107F80000AD08FE07ACF813511F488E018D01DD067
:107F900080E101D065CF982F8091C00085FFFCCF94
:107FA0009093C60008958091C00087FFFCCF809118
:107FB000C00084FD01C0A8958091C6000895E0E648
:107FC000F0E098E1908380830895EDDF803219F02E
:107FD00088E0F5DFFFCF84E1DECF1F93182FE3DFCA
:107FE0001150E9F7F2DF1F91089580E0E8DFEE27F6
:047FF000FF270994CA
:027FFE00040479
:0400000300007E007B
:00000001FF