:100000000C945D000C9485000C9485000C94850084
:100010000C9485000C9485000C9485000C9485004C
:100020000C9485000C9485000C9485000C9485003C
:100030000C9485000C9485000C9485000C9485002C
:100040000C94DE020C9485000C94AC020C94860295
:100050000C9485000C9485000C9485000C9485000C
:100060000C9485000C9485000000000024002700FB
:100070002A0000000000250028002B0004040404CE
:100080000404040402020202020203030303030342
:10009000010204081020408001020408102001021F
:1000A00004081020000000080002010000030407FB
:1000B0000000000000000000280311241FBECFEF45
:1000C000D8E0DEBFCDBF22E0AAE3B1E001C01D92BF
:1000D000AB32B207E1F711E0A0E0B1E0E6E3FBE00C
:1000E00002C005900D92AA33B107D9F710E0CDE513
:1000F000D0E004C02197FE010E949305CC35D107C2
:10010000C9F70E9467030C9499050C940000E8E479
:10011000F1E0A089B18982E08C93A485B5851C9219
:10012000A685B78580E18C93108EA489B58986E079
:100130008C93A289B3898C9180618C93A289B389B5
:100140008C9188608C93A289B3898C9180688C9300
:100150000288F389E02D80818F7D80830895E1EB13
:10016000F0E02491EDE9F0E09491E9E8F0E0E49129
:10017000EE23C9F0222339F0233001F1A8F4213015
:1001800019F1223029F1F0E0EE0FFF1FEE58FF4F7A
:10019000A591B4912FB7F894EC91811126C0909558
:1001A0009E239C932FBF08952730A9F02830C9F0D3
:1001B000243049F7209180002F7D03C020918000DA
:1001C0002F7720938000DFCF24B52F7724BDDBCF9E
:1001D00024B52F7DFBCF2091B0002F772093B00066
:1001E000D2CF2091B0002F7DF9CF9E2BDACFAF92E6
:1001F000BF92CF92DF92EF92FF920F931F93CF9314
:10020000DF936C017B018B01040F151FEB015E0175
:10021000AE18BF08C017D10759F06991D601ED910A
:10022000FC910190F081E02DC6010995892B79F7A9
:10023000C501DF91CF911F910F91FF90EF90DF905B
:10024000CF90BF90AF900895FC01538D448D252F22
:1002500030E0842F90E0821B930B541710F0CF9660
:10026000089501970895FC01918D828D981761F092
:10027000A28DAE0FBF2FB11D5D968C91928D9F5FA9
:100280009F73928F90E008958FEF9FEF0895FC0188
:10029000918D828D981731F0828DE80FF11D858D3B
:1002A00090E008958FEF9FEF0895FC01918D228DCE
:1002B000892F90E0805C9F4F821B91098F73992753
:1002C000089588E491E00E94550121E0892B09F40A
:1002D00020E0822F089580E090E0892B29F00E9491
:1002E000610181110C9400000895FC01A48DA80FF8
:1002F000B92FB11DA35ABF4F2C91848D90E0019668
:100300008F739927848FA689B7892C93A089B18987
:100310008C91837080648C93938D848D981306C028
:100320000288F389E02D80818F7D80830895EF928C
:10033000FF920F931F93CF93DF93EC0181E0888F9F
:100340009B8D8C8D98131AC0E889F989808185FF6F
:1003500015C09FB7F894EE89FF896083E889F98911
:1003600080818370806480839FBF81E090E0DF9113
:10037000CF911F910F91FF90EF900895F62E0B8D66
:1003800010E00F5F1F4F0F731127E02E8C8D8E1121
:100390000CC00FB607FCFACFE889F989808185FF88
:1003A000F5CFCE010E947501F1CFEB8DEC0FFD2F43
:1003B000F11DE35AFF4FF0829FB7F8940B8FEA8943
:1003C000FB8980818062CFCFCF93DF93EC01888D52
:1003D0008823B9F0AA89BB89E889F9898C9185FDC0
:1003E00003C0808186FD0DC00FB607FCF7CF8C914E
:1003F00085FFF2CF808185FFEDCFCE010E94750190
:10040000E9CFDF91CF9108953FB7F89480913F01F4
:1004100090914001A0914101B091420126B5A89B65
:1004200005C02F3F19F00196A11DB11D3FBFBA2F86
:10043000A92F982F8827BC01CD01620F711D811D46
:10044000911D42E0660F771F881F991F4A95D1F7CB
:1004500008952FB7F89460913B0170913C01809111
:100460003D0190913E012FBF0895FC0101900020B5
:10047000E9F73197AF01481B590BBC0188E491E0C3
:100480000C94F7008F929F92AF92BF920F931F939D
:10049000CF93DF93CDB7DEB7A1970FB6F894DEBF49
:1004A0000FBECDBF19A2423008F44AE08E010F5DA5
:1004B0001F4F842E912CB12CA12CA50194010E94D8
:1004C0007105E62FB901CA01EA30F4F4E05DD80104
:1004D000EE938D01232B242B252B79F790E080E0E0
:1004E000109719F0CD010E943502A1960FB6F8942D
:1004F000DEBF0FBECDBFDF91CF911F910F91BF9097
:10050000AF909F908F900895E95CE1CF1F920F927A
:100510000FB60F9211242F933F934F935F936F93D6
:100520007F938F939F93AF93BF93EF93FF9388E451
:1005300091E00E947501FF91EF91BF91AF919F9162
:100540008F917F916F915F914F913F912F910F907C
:100550000FBE0F901F9018951F920F920FB60F921B
:1005600011242F938F939F93EF93FF93E091580162
:10057000F09159018081E0915E01F0915F0182FD6F
:100580001BC09081809161018F5F8F732091620108
:10059000821741F0E0916101F0E0E85BFE4F958F3A
:1005A00080936101FF91EF919F918F912F910F9017
:1005B0000FBE0F901F9018958081F4CF1F920F925D
:1005C0000FB60F9211242F933F938F939F93AF9366
:1005D000BF9380913B0190913C01A0913D01B0916E
:1005E0003E0130913A0123E0230F2D3758F5019653
:1005F000A11DB11D20933A0180933B0190933C01D2
:10060000A0933D01B0933E0180913F019091400144
:10061000A0914101B09142010196A11DB11D8093AD
:100620003F0190934001A0934101B0934201BF91DB
:10063000AF919F918F913F912F910F900FBE0F908F
:100640001F90189526E8230F0296A11DB11DD2CF49
:10065000E8E4F1E01382128288EE93E0A0E0B0E0DB
:1006600084839583A683B78384E091E0918380831C
:1006700085EC90E09587848784EC90E09787868767
:1006800080EC90E0918B808B81EC90E0938B828B5F
:1006900082EC90E0958B848B86EC90E0978B868B38
:1006A000118E128E138E148EE5EEF1E016821782F3
:1006B000108611861286138614861586168617866E
:1006C000108A118A128A138A148A158A08957894D6
:1006D00084B5826084BD84B5816084BD85B5826047
:1006E00085BD85B5816085BD80916E0081608093F8
:1006F0006E00109281008091810082608093810061
:100700008091810081608093810080918000816070
:10071000809380008091B10084608093B1008091CB
:10072000B00081608093B00080917A0084608093F3
:100730007A0080917A00826080937A0080917A00BA
:10074000816080937A0080917A00806880937A003B
:100750001092C100109227021092280210922902D2
:1007600010922A021092E7011092E8011092E9011A
:100770001092EA010E9429026B017C014B015C018D
:1007800028EB820E2BE0921EA11CB11C0E942902B4
:100790006C157D058E059F0528F086169706A80620
:1007A000B906A0F70E9404024B015C0148EEC42E7A
:1007B00043E0D42EE12CF12C0E940402681979093F
:1007C0008A099B09683E734081059105A8F331E0D1
:1007D000C31AD108E108F10848EE840E43E0941EE4
:1007E000A11CB11CC114D104E104F10429F70E9439
:1007F00087000E9429026093E7017093E8018093CB
:10080000E9019093EA0182E191E00E9435020E94A1
:1008100029026B017C014B015C018AE0880E911C6E
:10082000A11CB11C0E9429026C157D058E059F0537
:1008300028F086169706A806B906A0F781E08093EF
:10084000FB010E948700EDE9F0E02491E9E8F0E087
:100850008491882399F090E0880F991FFC01E85952
:10086000FF4FA591B491FC01EE58FF4F85919491F3
:100870008FB7F894EC91E22BEC938FBFC0E0D0E0FF
:1008800084EF882E99249394A12CB12C11E00E941E
:100890002902672B682B692B09F4E0C00E9429020A
:1008A000C0904401D0904501E0904601F09047018E
:1008B0006C157D058E059F0508F402C1C0904401AA
:1008C000D0904501E0904601F09047019B01AC01BA
:1008D0002C193D094E095F0969017A013AEFC316E7
:1008E000D104E104F10408F4C1C0609344017093A1
:1008F000450180934601909347018092F3019092C5
:10090000F401A092F501B092F6011092F701109255
:10091000F8011092F9011092FA018091EB01909187
:10092000EC01A091ED01B091EE018093EF01909365
:10093000F001A093F101B093F2010E9429026093AB
:10094000EB017093EC018093ED019093EE010E9416
:1009500029026093E7017093E8018093E901909385
:10096000EA010E9429026B017C0183E291E00E946E
:1009700035024AE061E070E080E090E00E944202CF
:100980008AE291E00E9435024AE0C701B6010E9466
:1009900042028CE291E00E9435028091EB0190913D
:1009A000EC01A091ED01B091EE01A7019601281B89
:1009B000390B4A0B5B0BCA01B9014AE00E944202A3
:1009C0008CE291E00E9435026091EB017091EC01A4
:1009D0008091ED019091EE01C090EF01D090F00177
:1009E000E090F101F090F2016C197D098E099F09E8
:1009F0004AE00E9442028EE291E00E9435020E948B
:100A000029024AE00E94420280E391E00E943502FE
:100A100087E391E00E9435020E9429022B013C01EC
:100A20007C016B0132E0C30ED11CE11CF11C0E9461
:100A30002902641575058605970528F0C616D706A0
:100A4000E806F906A0F70E9429026093EB01709373
:100A5000EC018093ED019093EE0108C00E94290201
:100A6000623071058105910508F018CF88E491E0A6
:100A70000E9455011816190694F488E491E00E942A
:100A80003301082F682F88E491E00E94970187E3E3
:100A900091E00E9435020136E1F00337E9F08091E0
:100AA00043018130E1F40E94AF00209709F4EFCEBA
:100AB0000E946101882309F4EACE0E940000E7CE7B
:100AC00060934401709345018093460190934701E0
:100AD000F5CE10934301E3CF10924301E0CF80E0C5
:100AE000E2CFA1E21A2EAA1BBB1BFD010DC0AA1F5B
:100AF000BB1FEE1FFF1FA217B307E407F50720F087
:100B0000A21BB30BE40BF50B661F771F881F991F01
:100B10001A9469F760957095809590959B01AC014A
:100B2000BD01CF010895EE0FFF1F0590F491E02D58
:060B30000994F894FFCFC8
:100B3600000000009701F7002401E401550133018C
:100B46004701564D4450565F317C315F564D4450F7
:100B5600560A00564D4450455F003A323A007C0032
:0A0B66005F564D445045000D0A0093
:00000001FF
