:100000000C948F000C94B7000C94B7000C94B700BC
:100010000C94B7000C94B7000C94B7000C94B70084
:100020000C94B7000C94B7000C9495030C94040442
:100030000C94B7000C94B7000C94B7000C94B70064
:100040000C94B7000C94B7000C94B7000C94B70054
:100050000C94B7000C94B7000C94B7000C943606BF
:100060000C94B7000C94B7000C94B7000C94B70034
:100070000C94B7000C94B7000C94B7000C94B70024
:100080000C94B7000C94B7000C94B7000C94B70014
:100090000C94B7000C94B7000C94B7000C94B70004
:1000A0000C94B7000C94B7000C94B700080B000236
:1000B0000202000009040000010202000005240001
:1000C0001001052401010104240206052406000193
:1000D0000705810310004009040100020A00000026
:1000E00007050202400000070583024000000403E8
:1000F000090412010002EF02014041234180000186
:100100000102030141726475696E6F204C4C43001B
:1001100041726475696E6F2059756E0080061124F6
:100120001FBECFEFDAE0DEBFCDBF22E0A6E5B1E033
:1001300001C01D92AF30B207E1F711E0A0E0B1E0DD
:10014000EEEAF1E102C005900D92A635B107D9F7AC
:1001500010E0CFE8D0E004C02197FE010E94CF0854
:10016000CE38D107C9F70E94A7060C94D5080C9485
:100170000000FC0180917801882311F13FB7F894C9
:1001800082E08093E9002091F200822F90E018161F
:10019000190614F481E090E0882339F0289844E6A9
:1001A000409377014091F1004083222339F0209160
:1001B000F200211103C02BE62093E8003FBF089511
:1001C0008FEF9FEF08952FB7F89483E08093E900B5
:1001D0009091E800892F807295FF04C09091F20001
:1001E00080E4891B2FBF089580916F0181110DC09C
:1001F00082E080936B0184E080936C0110926E0129
:1002000010926D0181E080936F018BE691E008957B
:100210004091650150916601209163013091640124
:1002200042175307B4F49091E8009570E1F3909170
:10023000E80092FD19C08093F100809165019091D2
:10024000660101968F739927892B19F48EEF80939D
:10025000E800809165019091660101969093660196
:100260008093650181E0089580E00895EF92FF9208
:100270000F931F93CF93DF93F82E192FE62E042FA1
:1002800081E0860F880F0E94080183E00E94080128
:10029000CF2DD12FEC0EFD2EF11CCE15DF05B9F0C0
:1002A00007FF13C0FE0184910E940801182F80E00F
:1002B0000E940801812321968111EFCFDF91CF9118
:1002C0001F910F91FF90EF9008958881EDCF81E00D
:1002D000F5CFDF92EF92FF920F931F93CF93DF93AF
:1002E000D82E8A01EB017B01E40EF51ECE15DF0549
:1002F00059F0D7FE12C0FE0184910E940801219698
:100300008111F4CF0FEF1FEFC801DF91CF911F9143
:100310000F91FF90EF90DF9008958881EECF0F93BB
:100320001F93CF93DF931F92CDB7DEB782E089830F
:1003300042E450E06CEA70E080E80E9469010E94AB
:10034000F400DC0112960D911C910115110589F044
:10035000D801ED91FC910280F381E02DBE016F5F29
:100360007F4FC801099597FD04C0F80100851185EC
:10037000ECCF89810F90DF91CF911F910F9108955C
:10038000615030F02091F100FC0120830196F8CFFC
:10039000289884E6809377010895CF93DF931F9286
:1003A000CDB7DEB76983DC01ED91FC910280F3816A
:1003B000E02D41E050E0BE016F5F7F4F09950F9047
:1003C000DF91CF91089583E08093E9008091F2005E
:1003D000882319F08AE38093E80008950E94E300DF
:1003E00090E00895CF93DF931F92CDB7DEB7FC0165
:1003F0008485958597FD08C02FEF3FEF35872487CB
:100400000F90DF91CF910895CE0101960E94B9001F
:10041000019719F4898190E0F3CF8FEF9FEFF0CF30
:100420000F931F93CF93DF931F92CDB7DEB78C014D
:10043000FC018485958597FF0BC0CE0101960E9433
:10044000B900019771F4898190E0F801958784875C
:10045000F801848595850F90DF91CF911F910F91C1
:1004600008958FEF9FEFF1CFFC018485958597FD6F
:100470000BC09FB7F89482E08093E9008091F2006E
:100480009FBF90E0019608959FB7F89482E0809313
:10049000E9008091F2009FBF90E008953FB7F89483
:1004A00080915B0190915C01A0915D01B0915E0132
:1004B00026B5A89B05C02F3F19F00196A11DB11DBF
:1004C0003FBFBA2FA92F982F8827BC01CD01620FFB
:1004D000711D811D911D42E0660F771F881F991FB6
:1004E0004A95D1F708958F929F92AF92BF92CF9283
:1004F000DF92EF92FF924B015C010E944E026B0172
:100500007C010E944E026C197D098E099F09683E8C
:10051000734081059105A8F321E0821A9108A10892
:10052000B10888EEC80E83E0D81EE11CF11C8114CE
:100530009104A104B10429F7FF90EF90DF90CF90D0
:10054000BF90AF909F908F9008958F929F92AF929F
:10055000BF92CF92DF92EF92FF920F931F93CF93B0
:10056000DF936C017B018A0180910B01882309F4E0
:100570005CC080917801882309F457C0809169019B
:1005800080FF05C08091E00082608093E000E80178
:10059000B12C8AEFA82E93E0892E2AE3922E209781
:1005A00011F4BB20D9F10E94E30081110AC0AA9482
:1005B000AA20D9F161E070E080E090E00E9473022F
:1005C000EECF8C171D0611F00CF08C2F9FB7F8940E
:1005D0008092E9002091E80025FD02C09FBFDFCF97
:1005E000282F30E0C21BD30BF701815020F041913E
:1005F0004093F100FACFE20EF31EBB2021F090925F
:10060000E800B12CEBCF8091E80085FDE7CF909218
:10061000E800BB24B394209709F3F3CF5D9884E6F8
:1006200080936A01101611063CF081E090E0F6011B
:100630009383828310E000E0C801DF91CF911F9186
:100640000F91FF90EF90DF90CF90BF90AF909F9071
:100650008F9008952FB7F8946091570170915801C9
:100660008091590190915A012FBF0895FC0101908A
:100670000020E9F73197AF01481B590BBC0189E70E
:1006800091E00C94A5028F929F92AF92BF920F932C
:100690001F93CF93DF93CDB7DEB7A1970FB6F89432
:1006A000DEBF0FBECDBF19A2423008F44AE08E0172
:1006B0000F5D1F4F842E912CB12CA12CA50194010C
:1006C0000E94AD08E62FB901CA01EA30F4F4E05DFA
:1006D000D801EE938D01232B242B252B79F790E065
:1006E00080E0109719F0CD010E943603A1960FB655
:1006F000F894DEBF0FBECDBFDF91CF911F910F9158
:10070000BF90AF909F908F900895E95CE1CFCF9319
:10071000DF930E943603EC0185E291E00E943603EC
:100720008C0F9D1FDF91CF9108951F920F920FB6EE
:100730000F9211248F939F938091E1009091E1009B
:10074000937F9093E10083FF0FC01092E90091E046
:100750009093EB001092EC0092E39093ED001092D6
:10076000780198E09093F00082FF22C093E090938C
:10077000E9009091F200992319F09AE39093E80030
:1007800090916A01992341F090916A019150909360
:100790006A01911101C05D9A90917701992341F00E
:1007A00090917701915090937701911101C0289A0F
:1007B00084FF18C08091E2008E7E81608093E20009
:1007C0008091E1008F7E8093E100809169018E7EAF
:1007D0008061809369019F918F910F900FBE0F9060
:1007E0001F90189580FFF7CF8091E2008E7E806188
:1007F0008093E2008091E1008E7E8093E100809101
:1008000069018E7E8160E5CF1F920F920FB60F9225
:100810001124CF92DF92EF92FF920F931F932F93A9
:100820003F934F935F936F937F938F939F93AF9378
:10083000BF93EF93FF93CF93DF93CDB7DEB76C9762
:10084000DEBFCDBF1092E9008091E80083FF25C094
:1008500068E0CE0145960E94C00182EF8093E800D7
:100860008D8987FF39C09091E80090FFFCCF982FC9
:10087000907609F034C19E894F89588D2F89F88C64
:10088000911131C0803861F5809168018093F10049
:100890001092F1008EEF8093E8006C960FB6F894FA
:1008A000DEBF0FBECDBFDF91CF91FF91EF91BF9122
:1008B000AF919F918F917F916F915F914F913F91F8
:1008C0002F911F910F91FF90EF90DF90CF900F909D
:1008D0000FBE0F901F9018959EEF9093E800C7CF22
:1008E0001092F100D5CF913059F48111D3CF41301E
:1008F000510581F6809168018D7F80936801CACF90
:10090000933049F48111C6CF4130510519F68091D9
:1009100068018260F2CF953041F48091E80080FF59
:10092000FCCF20682093E300B5CF963009F0A9C032
:100930000B8D1C8D22E01092E9001092660110923E
:100940006501F2122EC010926401109263010E94A0
:100950008F011F8299E09983FA8291E09E8390EA49
:1009600098879AEF99872091650130916601275FFA
:100970003F4F3C832B838D831092E90010926601D8
:1009800010926501109364010093630149E050E007
:10099000BE016F5F7F4F80E00E9469010E948F015E
:1009A00079CF10936401009363010E94F400DC018D
:1009B00012960D911C910115110509F451C1D80130
:1009C000ED91FC910480F581E02DBE016B5E7F4FBF
:1009D000C8010995009709F03EC1F801008511850D
:1009E000EACFF3E0FF120EC08F89882309F440C0DC
:1009F000823061F440E86BE080E191E00E943601D2
:100A0000811148CF81E28093EB0047CF813029F4F8
:100A100040E86BE084E091E0F1CF833099F70E94E9
:100A2000F400DC011296ED90FC908E010F5F1F4FD9
:100A30006801E114F10479F0D701ED91FC91068091
:100A4000F781E02DB801C7010995080F111DF701C5
:100A5000E084F184EECFD8011C92F60101900020D1
:100A6000E9F73197BF016C197D0940E0C601C6CF97
:100A70006EEE70E0FB01449150E080E80E94690155
:100A800009CF973009F4BECF983021F481E08093EC
:100A9000F10000CF993009F0FDCE837009F0B2CF9C
:100AA000EDE0F1E081E031E096E32191222371F065
:100AB0008093E9003093EB00DF0111972C91209394
:100AC000EC009093ED008F5F873079F78EE780938D
:100AD000EA001092EA008F8980937801DBCE8B8D3B
:100AE0009C8D1092E900109266011092650190931E
:100AF000640180936301898D811192C08E899D89E3
:100B0000913A49F4813209F07DCF47E050E064E04A
:100B100071E080E0B3CF913209F074CF833269F491
:100B20008F89988DB0E0A0E080930001909301013F
:100B3000A0930201B0930301ADCE803269F480919D
:100B4000E80082FFFCCF67E084E091E00E94C001F2
:100B50008BEF8093E8009ECE823209F09BCE8F8986
:100B600080930B01EEEFFFE7859194918B3F9C4DB5
:100B700051F1E0E0F8E08091040190910501A0912D
:100B80000601B0910701803B9440A105B105F1F445
:100B900080910B0180FD1AC0EE3F8AE0F80789F5CD
:100BA00087E797E791838083809160008093670156
:100BB00088E19BE00FB6F894A895809360000FBE83
:100BC0009093600067CEEEEFFAE0D5CF80819181FF
:100BD0008737974709F05ECEA895809160008861BD
:100BE000809360008091670180936000EE3F2AE06F
:100BF000F20789F08091FE0A9091FF0A9183808329
:100C000049CE808191818737980751F29093FF0AEE
:100C10008093FE0AC5CF1092FF0A1092FE0A3ACEC8
:100C20000E94F400DC0112960D911C910115110532
:100C300009F4E8CED801ED91FC910190F081E02D0E
:100C4000BE016B5E7F4FC8010995811123CEF8016B
:100C500000851185EBCF181619060CF41BCED2CEE9
:100C6000F1E0FF12BECE62EF70E004CF1F920F9250
:100C70000FB60F9211242F933F938F939F93AF93AF
:100C8000BF938091570190915801A0915901B09163
:100C90005A013091560123E0230F2D3758F5019664
:100CA000A11DB11D209356018093570190935801C7
:100CB000A0935901B0935A0180915B0190915C011E
:100CC000A0915D01B0915E010196A11DB11D8093BF
:100CD0005B0190935C01A0935D01B0935E01BF91B5
:100CE000AF919F918F913F912F910F900FBE0F90D9
:100CF0001F90189526E8230F0296A11DB11DD2CF93
:100D0000E9E7F1E01382128288EE93E0A0E0B0E020
:100D100084839583A683B78387E191E09183808361
:100D20008FEF9FEF95878487E9ECF1E016821782B9
:100D300010861186128613861486158616861786E7
:100D4000108A118A128A138A148A158A089578944F
:100D500084B5826084BD84B5816084BD85B58260C0
:100D600085BD85B5816085BD80916E008160809371
:100D70006E001092810080918100826080938100DA
:100D800080918100816080938100809180008160EA
:100D90008093800080919100826080939100809187
:100DA0009100816080939100809190008160809398
:100DB00090008091C10084608093C1008091C10047
:100DC00082608093C1008091C10081608093C100E6
:100DD0008091C30081608093C3008091C0008260D5
:100DE0008093C0008091C20081608093C200809196
:100DF0007A00846080937A0080917A008260809388
:100E00007A0080917A00816080937A0080917A00E4
:100E1000806880937A001092780110926801109295
:100E200069018091D70081608093D70080EA809328
:100E3000D80089B5806189BD89B5826089BD09B452
:100E400000FEFDCF61E070E080E090E00E94730260
:100E50008091D8008F7C80618093D8008091E000E1
:100E6000807F8093E0008091E1008E7E8093E1009E
:100E70008DE08093E200559A209A10920B02109216
:100E80000C0210920D0210920E021092CB011092E1
:100E9000CC011092CD011092CE010E942A036B0169
:100EA0007C014B015C0128EB820E2BE0921EA11C01
:100EB000B11C0E942A036C157D058E059F0528F044
:100EC00086169706A806B906A0F768EE73E080E0DC
:100ED00090E00E9473028FEF9FEF909386018093C2
:100EE00085010E942A036093CB017093CC0180930B
:100EF000CD019093CE0188E291E00E9436030E94DA
:100F00002A036B017C014B015C013AE0830E911CCA
:100F1000A11CB11C0E942A036C157D058E059F053E
:100F200028F086169706A806B906A0F781E08093F8
:100F3000DF018FEF9FEF9093860180938501C0E0E2
:100F4000D0E084EF882E99249394A12CB12C0E9498
:100F50002A03672B682B692B09F4DCC00E942A0343
:100F6000C0905F01D0906001E0906101F09062015B
:100F70006C157D058E059F0508F4E6C0C0905F01E5
:100F8000D0906001E0906101F09062019B01AC01A2
:100F90002C193D094E095F0969017A013AEFC31620
:100FA000D104E104F10408F4BDC060935F017093C3
:100FB000600180936101909362018092D7019092C9
:100FC000D801A092D901B092DA011092DB011092FF
:100FD000DC011092DD011092DE018091CF01909131
:100FE000D001A091D101B091D2018093D30190930F
:100FF000D401A093D501B093D6010E942A03609337
:10100000CF017093D0018093D1019093D2010E94BF
:101010002A036093CB017093CC018093CD01909310
:10102000CE010E942A036B017C0189E391E00E94BA
:1010300036034AE061E070E080E090E00E94430304
:1010400080E491E00E9436034AE0C701B6010E94A5
:10105000430382E491E00E9436038091CF01909196
:10106000D001A091D101B091D201A7019601281B16
:10107000390B4A0B5B0BCA01B9014AE00E944303DA
:1010800082E491E00E9436036091CF017091D0011B
:101090008091D1019091D201C090D301D090D40120
:1010A000E090D501F090D6016C197D098E099F0959
:1010B0004AE00E94430384E491E00E9436030E94C8
:1010C0002A034AE00E94430386E491E00E948703DA
:1010D0000E942A032B013C017C016B0132E0C30E0C
:1010E000D11CE11CF11C0E942A03641575058605BC
:1010F000970528F0C616D706E806F906A0F70E945D
:101100002A036093CF017093D0018093D101909313
:10111000D20108C00E942A03623071058105910541
:1011200008F01CCF8DE491E00E94360383E591E046
:101130000E94870387E291E00E948703209709F4C9
:1011400006CF0E94000003CF60935F01709360019F
:10115000809361019093620111CFA1E21A2EAA1B24
:10116000BB1BFD010DC0AA1FBB1FEE1FFF1FA21757
:10117000B307E407F50720F0A21BB30BE40BF50B54
:10118000661F771F881F991F1A9469F760957095DD
:10119000809590959B01AC01BD01CF010895EE0FA4
:0E11A000FF1F0590F491E02D0994F894FFCF05
:1011AE00FFFFFFFF00E100000000000000C1808192
:1011BE0000000000000000CD01A502EE01E30134A5
:1011CE0002F20110020D0A00564D4450565F317C5A
:1011DE00315F564D4450560A00564D4450455F00FF
:1011EE003A323A007C005F564D4450450048656CDB
:0611FE006C6F007400009C
:00000001FF
