:100000000C945D000C9485000C9485000C94850084
:100010000C9485000C9485000C9485000C9485004C
:100020000C9485000C9485000C9485000C9485003C
:100030000C9485000C9485000C9485000C9485002C
:100040000C9444040C9485000C9412040C94EC035E
:100050000C9485000C9485000C9485000C9485000C
:100060000C9485000C94850000000008000201003B
:100070000003040700000000000000000000000072
:10008000250028002B0000000000240027002A0083
:10009000040404040404040402020202020203032E
:1000A0000303030301020408102040800102040836
:1000B00010200102040810208E0411241FBECFEF6F
:1000C000D8E0DEBFCDBF22E0A0E5B1E001C01D92C7
:1000D000A434B207E1F711E0A0E0B1E0E0EEF3E113
:1000E00002C005900D92A035B107D9F710E0CDE51B
:1000F000D0E004C02197FE010E94E707CC35D1076C
:10010000C9F70E94CD040C94EE090C940000EDE5B3
:10011000F1E0A089B18982E08C93A485B5851C9219
:10012000A685B78580E18C93108EA489B58986E079
:100130008C93A289B3898C9180618C93A289B389B5
:100140008C9188608C93A289B3898C9180688C9300
:100150000288F389E02D80818F7D80830895AF929E
:10016000BF92CF92DF92EF92FF920F931F93CF93A4
:10017000DF936C017B018B01040F151FEB015E0106
:10018000AE18BF08C017D10759F06991D601ED919B
:10019000FC910190F081E02DC6010995892B79F73A
:1001A000C501DF91CF911F910F91FF90EF90DF90EC
:1001B000CF90BF90AF900895FC01538D448D252FB3
:1001C00030E0842F90E0821B930B541710F0CF96F1
:1001D000089501970895FC01918D828D981761F023
:1001E000A28DAE0FBF2FB11D5D968C91928D9F5F3A
:1001F0009F73928F90E008958FEF9FEF0895FC0119
:10020000918D828D981731F0828DE80FF11D858DCB
:1002100090E008958FEF9FEF0895FC01918D228D5E
:10022000892F90E0805C9F4F821B91098F739927E3
:1002300008958DE591E00E940D0121E0892B09F4DC
:1002400020E0822F089580E090E0892B29F00E9421
:10025000190181110C9400000895FC01A48DA80FD0
:10026000B92FB11DA35ABF4F2C91848D90E00196F8
:100270008F739927848FA689B7892C93A089B18918
:100280008C91837080648C93938D848D981306C0B9
:100290000288F389E02D80818F7D80830895EF921D
:1002A000FF920F931F93CF93DF93EC0181E0888F30
:1002B0009B8D8C8D98131AC0E889F989808185FF00
:1002C00015C09FB7F894EE89FF896083E889F989A2
:1002D00080818370806480839FBF81E090E0DF91A4
:1002E000CF911F910F91FF90EF900895F62E0B8DF7
:1002F00010E00F5F1F4F0F731127E02E8C8D8E11B2
:100300000CC00FB607FCFACFE889F989808185FF18
:10031000F5CFCE010E942D01F1CFEB8DEC0FFD2F1B
:10032000F11DE35AFF4FF0829FB7F8940B8FEA89D3
:10033000FB8980818062CFCFCF93DF93EC01888DE2
:100340008823B9F0AA89BB89E889F9898C9185FD50
:1003500003C0808186FD0DC00FB607FCF7CF8C91DE
:1003600085FFF2CF808185FFEDCFCE010E942D0168
:10037000E9CFDF91CF91089590E0FC01E859FF4F5C
:100380002491FC01EC55FF4F3491FC01E057FF4FE5
:10039000E491EE23C9F0222339F0233001F1A8F4CF
:1003A000213019F1223029F1F0E0EE0FFF1FE4585F
:1003B000FF4FA591B4918FB7F894EC91611126C0CD
:1003C00030953E233C938FBF08952730A9F0283005
:1003D000C9F0243049F7809180008F7D03C080915F
:1003E00080008F7780938000DFCF84B58F7784BDC6
:1003F000DBCF84B58F7DFBCF8091B0008F7780936A
:10040000B000D2CF8091B0008F7DF9CF3E2BDACFF4
:100410003FB7F8948091550190915601A0915701F2
:10042000B091580126B5A89B05C02F3F19F0019641
:10043000A11DB11D3FBFBA2FA92F982F8827BC013E
:10044000CD01620F711D811D911D42E0660F771F66
:10045000881F991F4A95D1F708952FB7F894609196
:1004600051017091520180915301909154012FBF1D
:10047000089560E00C94BC01FC0101900020E9F7B4
:100480003197AF01481B590BBC018DE591E00C94ED
:10049000AF008F929F92AF92BF920F931F93CF9313
:1004A000DF93CDB7DEB7A1970FB6F894DEBF0FBECE
:1004B000CDBF19A2423008F44AE08E010F5D1F4FF4
:1004C000842E912CB12CA12CA50194010E948E07A1
:1004D000E62FB901CA01EA30F4F4E05DD801EE93E9
:1004E0008D01232B242B252B79F790E080E01097AA
:1004F00019F0CD010E943C02A1960FB6F894DEBF20
:100500000FBECDBFDF91CF911F910F91BF90AF90E4
:100510009F908F900895E95CE1CF1F93CF93DF9375
:1005200000D000D0CDB7DEB78DE591E00E94EB00A2
:100530008DE591E00E94EB0010E08A3379F0E1E074
:10054000F0E0EC0FFD1FE10FF11D17FDFA95808320
:100550001F5F8DE591E00E94EB00EFCFCE01019689
:100560000E943307182F8DE591E00E94EB00805325
:10057000990B8230910520F4682F812F0E94BC01D5
:100580008DE591E00E94EB008A3011F08D30C1F7CB
:100590008DE591E00E94FF008A3021F48DE591E025
:1005A0000E94EB000F900F900F900F90DF91CF9172
:1005B0001F9108950F931F93CF93DF93EC018881D0
:1005C0009981009759F02A813B812617370730F02F
:1005D00081E0DF91CF911F910F9108958B016F5FA3
:1005E0007F4F0E941209009759F0998388831B83DB
:1005F0000A832C813D81232B59F7FC011082E8CF1F
:1006000080E0E7CFCF93DF93EC0188819981009759
:1006100011F00E948908198218821D821C821B8297
:100620001A82DF91CF910895FC018081918100971A
:1006300011F00C9489080895EF92FF920F931F9385
:10064000CF93DF93EC01198218821B821A821D82DC
:100650001C828617970719F1FB0100811181011592
:100660001105E9F0E480F580B7010E94DA028111FA
:1006700009C0CE01DF91CF911F910F91FF90EF90B4
:100680000C940203FD82EC82B80188819981DF918C
:10069000CF911F910F91FF90EF900C94D809DF91AB
:1006A000CF911F910F91FF90EF900895EF92FF92DD
:1006B0000F931F93CF93DF93CDB7DEB76E970FB62F
:1006C000F894DEBF0FBECDBFF82EE92E61E00E9488
:1006D000BC011C8A1B8A1E8A1D8A188E1F8A4AE04A
:1006E0008E010F5F1F4FB8018F2D9E2D0E94510765
:1006F000F80101900020E9F731977F01E01AF10A33
:10070000B701CE0143960E94DA02811147C0CE01A3
:1007100043960E940203BE016D5E7F4FC8010E9496
:100720001C03ED80FE8082E0E80EF11CB701C801D9
:100730000E94DA028823D1F129813A818D819E813C
:1007400068E171E0820F931F0E94D809FE82ED825A
:10075000B801CE0149960E941C03C8010E941403EF
:10076000CE0143960E941403ED8CFE8CE114F1043B
:1007700009F51982C8010E943C02CE0149960E94E7
:1007800014036E960FB6F894DEBF0FBECDBFDF9197
:10079000CF911F910F91FF90EF900895F88EEF8AFF
:1007A000B8018B899C890E94D809B5CFC8010E94E5
:1007B0000203CECF89E0E816F10418F089E0E82EB4
:1007C000F12C698D7A8DA701C8010E94DF09F8011B
:1007D000EE0DFF1D1082CECF1F920F920FB60F921B
:1007E00011242F933F934F935F936F937F938F9336
:1007F0009F93AF93BF93EF93FF938DE591E00E949A
:100800002D01FF91EF91BF91AF919F918F917F91BA
:100810006F915F914F913F912F910F900FBE0F906D
:100820001F9018951F920F920FB60F9211242F93BD
:100830008F939F93EF93FF93E0916D01F0916E0181
:100840008081E0917301F091740182FD1BC0908161
:10085000809176018F5F8F7320917701821741F02D
:10086000E0917601F0E0E35AFE4F958F8093760198
:10087000FF91EF919F918F912F910F900FBE0F904D
:100880001F9018958081F4CF1F920F920FB60F9290
:1008900011242F933F938F939F93AF93BF93809196
:1008A000510190915201A0915301B09154013091A6
:1008B000500123E0230F2D3758F50196A11DB11DDE
:1008C000209350018093510190935201A0935301C2
:1008D000B09354018091550190915601A091570118
:1008E000B09158010196A11DB11D809355019093BF
:1008F0005601A0935701B0935801BF91AF919F91BA
:100900008F913F912F910F900FBE0F901F901895D0
:1009100026E8230F0296A11DB11DD2CFEDE5F1E02F
:100920001382128288EE93E0A0E0B0E08483958386
:10093000A683B7838AE091E09183808385EC90E081
:100940009587848784EC90E09787868780EC90E099
:10095000918B808B81EC90E0938B828B82EC90E08A
:10096000958B848B86EC90E0978B868B118E128E04
:10097000138E148EEAEFF1E016821782108611862C
:10098000128613861486158616861786108A118A93
:10099000128A138A148A158A0895789484B582601D
:1009A00084BD84B5816084BD85B5826085BD85B513
:1009B000816085BD80916E00816080936E00109291
:1009C000810080918100826080938100809181000C
:1009D000816080938100809180008160809380009D
:1009E0008091B10084608093B1008091B0008160FB
:1009F0008093B00080917A00846080937A00809127
:100A00007A00826080937A0080917A00816080937E
:100A10007A0080917A00806880937A001092C100F9
:100A200010923C0210923D0210923E0210923F0240
:100A30001092FC011092FD011092FE011092FF0134
:100A40000E942D026B017C014B015C0128EB820EA0
:100A50002BE0921EA11CB11C0E942D026C157D057D
:100A60008E059F0528F086169706A806B906A0F7FA
:100A70000E9408024B015C0168EEC62E63E0D62E90
:100A8000E12CF12C0E940802681979098A099B0956
:100A9000683E734081059105A8F331E0C31AD1087F
:100AA000E108F10848EE840E43E0941EA11CB11C3D
:100AB000C114D104E104F10429F70E9487000E94C7
:100AC0002D026093FC017093FD018093FE019093D1
:100AD000FF018BE191E00E943C020E942D026B011C
:100AE0007C014B015C018AE0880E911CA11CB11CA9
:100AF0000E942D026C157D058E059F0528F0861637
:100B00009706A806B906A0F781E0809310020E941C
:100B10002D026093FC017093FD018093FE01909380
:100B2000FF018CE291E00E943C020E9487002DE0D0
:100B300030E0F901EC55FF4F4491F901E057FF4FC8
:100B40008491882399F090E0880F991FFC01EA575F
:100B5000FF4FA591B491FC01E458FF4F859194910A
:100B60008FB7F894EC91E42BEC938FBF21503109AF
:100B700025303105F1F683E391E00E943C02C0E0AC
:100B8000D0E084EFC82EDD24D394E12CF12C0E9418
:100B90002D02672B682B692B09F4F0C00E942D02EF
:100BA0008090590190905A01A0905B01B0905C0137
:100BB000681579058A059B0508F40EC180905901D6
:100BC00090905A01A0905B01B0905C019B01AC0138
:100BD000281939094A095B0949015A013AEF831674
:100BE0009104A104B10408F4D1C060935901709339
:100BF0005A0180935B0190935C01C0920802D092ED
:100C00000902E0920A02F0920B0210920C0210927A
:100C10000D0210920E0210920F028091000290912C
:100C20000102A0910202B09103028093040290930A
:100C30000502A0930602B09307020E942D02609362
:100C400000027093010280930202909303028DE5EB
:100C500091E00E94FF00843611F40E948D020E94F0
:100C60002D026093FC017093FD018093FE0190932F
:100C7000FF010E942D024B015C0189E391E00E947B
:100C80003C024AE061E070E080E090E00E944902AE
:100C900080E491E00E943C024AE0C501B4010E9458
:100CA000490282E491E00E943C028091000290910E
:100CB0000102A0910202B0910302A5019401281B38
:100CC000390B4A0B5B0BCA01B9014AE00E94490289
:100CD00082E491E00E943C02609100027091010266
:100CE000809102029091030280900402909005028C
:100CF000A0900602B0900702681979098A099B0939
:100D00004AE00E94490284E491E00E943C020E9471
:100D10002D024AE00E94490286E491E00E943C02D2
:100D20008DE491E00E943C020E942D022B013C01C7
:100D30005C014B0132E0830E911CA11CB11C0E948E
:100D40002D02641575058605970528F08616970609
:100D5000A806B906A0F78DE591E00E94FF00843651
:100D600011F40E948D020E942D0260930002709384
:100D70000102809302029093030208C00E942D0298
:100D8000623071058105910508F008CF8DE591E08D
:100D90000E940D011816190664F58DE591E00E9478
:100DA000EB00EFE9E80FE03120F50E2E000CFF0B11
:100DB000E452F94F0C94E707F506040709070C07FE
:100DC0000F071207150718071B071E07210724071F
:100DD00027072A072D0730076093590170935A019E
:100DE00080935B0190935C01E9CE8DE090E00E94DE
:100DF0005603209709F4CBCE0E941901882309F4E9
:100E0000C6CE0E940000C3CE8DE090E00E94390261
:100E1000F0CF8CE090E0EBCF8CE090E0F7CF8BE070
:100E200090E0E5CF8BE090E0F1CF8AE090E0DFCF7B
:100E30008AE090E0EBCF89E090E0D9CF89E090E0C4
:100E4000E5CF88E090E0D3CF88E090E0DFCF87E087
:100E500090E0CDCF87E090E0D9CF86E090E0C7CF9B
:100E600086E090E0D3CFFC0188279927E894219170
:100E70002032E9F3293010F02E30C8F32B3241F044
:100E80002D3239F4689404C00E945C07820F911DD2
:100E9000219120532A30C0F31EF4909581959F4FE5
:100EA0000895BB274A3031F4992322F4BDE290958E
:100EB00081959F4F0C9465077AE0979F902D879FAF
:100EC000802D910D11240895BB27FB015527AA27DA
:100ED000880F991FAA1FA41710F0A41B83955051C7
:100EE000B9F7A05DAA3308F0A95DA193009779F73F
:100EF000B111B1931192CB010C947E07DC01FC017E
:100F0000672F71917723E1F7329704C07C916D933D
:100F100070836291AE17BF07C8F30895A1E21A2E3D
:100F2000AA1BBB1BFD010DC0AA1FBB1FEE1FFF1F8D
:100F3000A217B307E407F50720F0A21BB30BE40BDD
:100F4000F50B661F771F881F991F1A9469F7609524
:100F50007095809590959B01AC01BD01CF010895DE
:100F60002F923F924F925F926F927F928F929F92B9
:100F7000AF92BF92CF92DF92EF92FF920F931F93A7
:100F8000CF93DF93CDB7DEB7CA1BDB0B0FB6F89458
:100F9000DEBF0FBECDBF09942A88398848885F8498
:100FA0006E847D848C849B84AA84B984C884DF8009
:100FB000EE80FD800C811B81AA81B981CE0FD11DED
:100FC0000FB6F894DEBF0FBECDBFED010895EE0F52
:100FD000FF1F0590F491E02D09940F931F93CF9379
:100FE000DF938230910510F482E090E0E0914202BC
:100FF000F091430230E020E0B0E0A0E0309799F4B7
:101000002115310509F44AC0281B390B243031055C
:10101000D8F58A819B816115710589F1FB01938364
:101020008283FE0111C040815181028113814817E2
:101030005907E0F04817590799F4109761F0129694
:101040000C93129713961C933296CF01DF91CF9198
:101050001F910F9108950093420210934302F4CF21
:101060002115310551F04217530738F0A901DB0172
:101070009A01BD01DF01F801C1CFEF01F9CF9093D3
:10108000430280934202CDCFFE01E20FF31F819312
:1010900091932250310939832883D7CF2091400280
:1010A00030914102232B41F4209102013091030140
:1010B00030934102209340022091000130910101C0
:1010C0002115310541F42DB73EB7409104015091EF
:1010D0000501241B350BE0914002F0914102E2171B
:1010E000F307A0F42E1B3F0B2817390778F0AC014B
:1010F0004E5F5F4F2417350748F04E0F5F1F509328
:10110000410240934002819391939FCFF0E0E0E051
:101110009CCFCF93DF930097E9F0FC0132971382C5
:101120001282A0914202B0914302ED0130E020E032
:101130001097A1F420813181820F931F20914002EA
:10114000309141022817390709F061C0F09341023C
:10115000E0934002DF91CF910895EA01CE17DF07B7
:10116000E8F54A815B819E0141155105B1F7E9011E
:10117000FB83EA8349915991C40FD51FEC17FD07F2
:1011800061F4808191810296840F951FE901998312
:101190008883828193819B838A83F0E0E0E01296CA
:1011A0008D919C9113970097B9F52D913C911197D2
:1011B000CD010296820F931F20914002309141028F
:1011C0002817390739F6309751F5109243021092DB
:1011D0004202B0934102A0934002BCCFD383C283AA
:1011E00040815181840F951FC817D90761F44E5F64
:1011F0005F4F88819981480F591F518340838A81AD
:101200009B81938382832115310509F0B0CFF09340
:101210004302E09342029ECFFD01DC01C0CF138266
:101220001282D7CFB0E0A0E0E8E1F9E00C94B20779
:101230008C01009751F4CB010E94ED078C01C8018D
:10124000CDB7DEB7E0E10C94CE07FC01E60FF71F47
:101250009C0122503109E217F30708F49DC0D9011F
:10126000CD91DC911197C617D70798F0C530D105FD
:1012700030F3CE0104978617970708F3C61BD70BE8
:101280002297C193D1936D937C93CF010E948908DB
:10129000D6CF5B01AC1ABD0A4C018C0E9D1EA091ED
:1012A0004202B0914302512C412CF12CE12C1097B9
:1012B00031F580914002909141028815990509F01D
:1012C0005CC04616570608F058C080910001909106
:1012D0000101009741F48DB79EB7409104015091F0
:1012E0000501841B950BE817F90708F055C0F0932A
:1012F0004102E0934002F90171836083A0CF8D9198
:101300009C91119712966C90129713967C9013975C
:10131000A815B90559F56C0142E0C40ED11CCA14D8
:10132000DB0420F1AC014A195B09DA01129615972A
:1013300080F06282738251834083D9016D937C93E4
:10134000E114F10471F0D7011396FC93EE93129718
:1013500076CF22968C0F9D1FF90191838083F30134
:10136000EFCFF0934302E093420269CF481659064B
:1013700008F42C017D01D3019ACFCB010E94ED0727
:101380007C01009749F0AE01B8010E94CF09C80165
:101390000E948908870153CF10E000E050CFFB0185
:1013A000DC0102C001900D9241505040D8F70895E1
:1013B000FB01DC0101900D920020E1F70895FB0193
:1013C000DC014150504048F001900D920020C9F7D7
:1013D00001C01D9241505040E0F70895F894FFCFAE
:1013E000000044028000000000004F01AF00DC005C
:1013F0009C010D01EB00FF004F4E00564D4450562E
:101400005F317C315F564D4450560A00564D445072
:10141000525F00737461727400564D4450455F0012
:101420003A323A007C005F564D445045000D0A00A8
:107E0000112484B714BE81FFF0D085E080938100F7
:107E100082E08093C00088E18093C10086E0809377
:107E2000C20080E18093C4008EE0C9D0259A86E02C
:107E300020E33CEF91E0309385002093840096BBD3
:107E4000B09BFECF1D9AA8958150A9F7CC24DD24C4
:107E500088248394B5E0AB2EA1E19A2EF3E0BF2EE7
:107E6000A2D0813461F49FD0082FAFD0023811F036
:107E7000013811F484E001C083E08DD089C08234E0
:107E800011F484E103C0853419F485E0A6D080C0E4
:107E9000853579F488D0E82EFF2485D0082F10E0AE
:107EA000102F00270E291F29000F111F8ED06801E7
:107EB0006FC0863521F484E090D080E0DECF843638
:107EC00009F040C070D06FD0082F6DD080E0C81688
:107ED00080E7D80618F4F601B7BEE895C0E0D1E017
:107EE00062D089930C17E1F7F0E0CF16F0E7DF06D8
:107EF00018F0F601B7BEE89568D007B600FCFDCFD4
:107F0000A601A0E0B1E02C9130E011968C91119780
:107F100090E0982F8827822B932B1296FA010C0160
:107F200087BEE89511244E5F5F4FF1E0A038BF0790
:107F300051F7F601A7BEE89507B600FCFDCF97BE46
:107F4000E89526C08437B1F42ED02DD0F82E2BD052
:107F50003CD0F601EF2C8F010F5F1F4F84911BD097
:107F6000EA94F801C1F70894C11CD11CFA94CF0C13
:107F7000D11C0EC0853739F428D08EE10CD085E9AC
:107F80000AD08FE07ACF813511F488E018D01DD067
:107F900080E101D065CF982F8091C00085FFFCCF94
:107FA0009093C60008958091C00087FFFCCF809118
:107FB000C00084FD01C0A8958091C6000895E0E648
:107FC000F0E098E1908380830895EDDF803219F02E
:107FD00088E0F5DFFFCF84E1DECF1F93182FE3DFCA
:107FE0001150E9F7F2DF1F91089580E0E8DFEE27F6
:047FF000FF270994CA
:027FFE00040479
:0400000300007E007B
:00000001FF