:100000000C945D000C9485000C9485000C94850084
:100010000C9485000C9485000C9485000C9485004C
:100020000C9485000C9485000C9485000C9485003C
:100030000C9485000C9485000C9485000C9485002C
:100040000C940F030C9485000C94DD020C94B70201
:100050000C9485000C9485000C9485000C9485000C
:100060000C9485000C94850000000008000201003B
:100070000003040700000000000000000000000072
:10008000250028002B0000000000240027002A0083
:10009000040404040404040402020202020203032E
:1000A0000303030301020408102040800102040836
:1000B0001020010204081020590311241FBECFEFA5
:1000C000D8E0DEBFCDBF22E0A8E6B1E001C01D92BE
:1000D000A837B207E1F711E0A0E0B1E0E6E3F2E112
:1000E00002C005900D92A836B107D9F710E0CDE512
:1000F000D0E004C02197FE010E941309CC35D1073E
:10010000C9F70E9498030C9419090C940000E5E9C2
:10011000F1E0A089B18982E08C93A485B5851C9219
:10012000A685B78580E18C93108EA489B58986E079
:100130008C93A289B3898C9180618C93A289B389B5
:100140008C9188608C93A289B3898C9180688C9300
:100150000288F389E02D80818F7D8083089590E06F
:10016000FC01EC55FF4F249180579F4FFC01849177
:10017000882399F090E0880F991FFC01EA57FF4F00
:10018000A591B491FC01E458FF4F859194918FB7EC
:10019000F894EC91E22BEC938FBF0895AF92BF924D
:1001A000CF92DF92EF92FF920F931F93CF93DF9343
:1001B0006C017B018B01040F151FEB015E01AE1872
:1001C000BF08C017D10759F06991D601ED91FC9194
:1001D0000190F081E02DC6010995892B79F7C501C1
:1001E000DF91CF911F910F91FF90EF90DF90CF9013
:1001F000BF90AF900895FC01538D448D252F30E0C2
:10020000842F90E0821B930B541710F0CF96089523
:1002100001970895FC01918D828D981761F0A28D50
:10022000AE0FBF2FB11D5D968C91928D9F5F9F7316
:10023000928F90E008958FEF9FEF0895FC01918DCC
:10024000828D981731F0828DE80FF11D858D90E039
:1002500008958FEF9FEF0895FC01918D228D892FD6
:1002600090E0805C9F4F821B91098F7399270895BE
:1002700085E991E00E942C0121E0892B09F420E01E
:10028000822F089580E090E0892B29F00E943801A8
:1002900081110C9400000895FC01A48DA80FB92FC2
:1002A000B11DA35ABF4F2C91848D90E001968F739E
:1002B0009927848FA689B7892C93A089B1898C91BD
:1002C000837080648C93938D848D981306C002880C
:1002D000F389E02D80818F7D80830895EF92FF92D6
:1002E0000F931F93CF93DF93EC0181E0888F9B8D59
:1002F0008C8D98131AC0E889F989808185FF15C013
:100300009FB7F894EE89FF896083E889F989808135
:100310008370806480839FBF81E090E0DF91CF9104
:100320001F910F91FF90EF900895F62E0B8D10E026
:100330000F5F1F4F0F731127E02E8C8D8E110CC095
:100340000FB607FCFACFE889F989808185FFF5CFE0
:10035000CE010E944C01F1CFEB8DEC0FFD2FF11D72
:10036000E35AFF4FF0829FB7F8940B8FEA89FB891D
:1003700080818062CFCFCF93DF93EC01888D88237B
:10038000B9F0AA89BB89E889F9898C9185FD03C0F8
:10039000808186FD0DC00FB607FCF7CF8C9185FFDD
:1003A000F2CF808185FFEDCFCE010E944C01E9CFD5
:1003B000DF91CF91089590E0FC01E859FF4F24911F
:1003C000FC01EC55FF4F3491FC01E057FF4FE491E5
:1003D000EE23C9F0222339F0233001F1A8F42130B3
:1003E00019F1223029F1F0E0EE0FFF1FE458FF4F22
:1003F000A591B4918FB7F894EC91611126C0309516
:100400003E233C938FBF08952730A9F02830C9F0D0
:10041000243049F7809180008F7D03C08091800057
:100420008F7780938000DFCF84B58F7784BDDBCF5B
:1004300084B58F7DFBCF8091B0008F778093B00023
:10044000D2CF8091B0008F7DF9CF3E2BDACF3FB76E
:10045000F89480916D0190916E01A0916F01B0911F
:10046000700126B5A89B05C02F3F19F00196A11D6C
:10047000B11D3FBFBA2FA92F982F8827BC01CD01EE
:10048000620F711D811D911D42E0660F771F881F4D
:10049000991F4A95D1F708952FB7F8946091690193
:1004A00070916A0180916B0190916C012FBF08954A
:1004B000FC0101900020E9F73197AF01481B590B6F
:1004C000BC0185E991E00C94CE008F929F92AF928F
:1004D000BF920F931F93CF93DF93CDB7DEB7A19752
:1004E0000FB6F894DEBF0FBECDBF19A2423008F49C
:1004F0004AE08E010F5D1F4F842E912CB12CA12C50
:10050000A50194010E944B08E62FB901CA01EA3007
:10051000F4F4E05DD801EE938D01232B242B252BE1
:1005200079F790E080E0109719F0CD010E94580211
:10053000A1960FB6F894DEBF0FBECDBFDF91CF916D
:100540001F910F91BF90AF909F908F900895E95C9D
:10055000E1CFCF93DF930E945802EC0182E191E05A
:100560000E9458028C0F9D1FDF91CF9108951F921A
:100570000F920FB60F9211242F933F934F935F93D7
:100580006F937F938F939F93AF93BF93EF93FF935B
:1005900085E991E00E944C01FF91EF91BF91AF91ED
:1005A0009F918F917F916F915F914F913F912F918B
:1005B0000F900FBE0F901F9018951F920F920FB6BD
:1005C0000F9211242F938F939F93EF93FF93E091BA
:1005D000A501F091A6018081E091AB01F091AC0101
:1005E00082FD1BC090818091AE018F5F8F7320913F
:1005F000AF01821741F0E091AE01F0E0EB56FE4F03
:10060000958F8093AE01FF91EF919F918F912F91E4
:100610000F900FBE0F901F9018958081F4CF1F92FE
:100620000F920FB60F9211242F933F938F939F93A6
:10063000AF93BF938091690190916A01A0916B0182
:10064000B0916C013091680123E0230F2D3758F5EC
:100650000196A11DB11D20936801809369019093BB
:100660006A01A0936B01B0936C0180916D01909130
:100670006E01A0916F01B09170010196A11DB11D95
:1006800080936D0190936E01A0936F01B093700100
:10069000BF91AF919F918F913F912F910F900FBE7E
:1006A0000F901F90189526E8230F0296A11DB11DEB
:1006B000D2CFE5E9F1E01382128288EE93E0A0E068
:1006C000B0E084839583A683B78384E091E091832F
:1006D000808385EC90E09587848784EC90E0978711
:1006E000868780EC90E0918B808B81EC90E0938BFF
:1006F000828B82EC90E0958B848B86EC90E0978BDC
:10070000868B118E128E138E148EE2E3F2E0168227
:100710001782108611861286138614861586168611
:100720001786108A118A128A138A148A158A0895E4
:10073000789484B5826084BD84B5816084BD85B5BC
:10074000826085BD85B5816085BD80916E008160C8
:1007500080936E001092810080918100826080936E
:100760008100809181008160809381008091800070
:100770008160809380008091B10084608093B1009B
:100780008091B00081608093B00080917A00846095
:1007900080937A0080917A00826080937A008091C1
:1007A0007A00816080937A0080917A0080688093DB
:1007B0007A001092C1001092740210927502109289
:1007C0007602109277021092340210923502109243
:1007D0003602109237020E944C026B017C014B01E1
:1007E0005C0128EB820E2BE0921EA11CB11C0E9422
:1007F0004C026C157D058E059F0528F08616970620
:10080000A806B906A0F70E9427024B015C0138EE4A
:10081000C32E33E0D32EE12CF12C0E94270268195D
:1008200079098A099B09683E734081059105A8F3FF
:1008300031E0C31AD108E108F10848EE840E43E024
:10084000941EA11CB11CC114D104E104F10429F7C8
:100850000E9487000E944C0260933402709335021C
:10086000809336029093370285E191E00E9458020E
:100870000E944C026B017C014B015C018AE0880EF6
:10088000911CA11CB11C0E944C026C157D058E05AB
:100890009F0528F086169706A806B906A0F781E0FE
:1008A000809348020E9487008CE00E94AF008BE09A
:1008B0000E94AF008AE00E94AF0089E00E94AF0072
:1008C00081E991E0ADE7B1E0EDE8F1E011921D9230
:1008D0001D921D921D928E179F07C1F720E0822E58
:1008E00020E0922E332433940E944C02672B682B15
:1008F000692B09F4DFC00E944C0200919101109114
:100900009201209193013091940160177107820741
:10091000930708F4D3C100919101109192012091A5
:100920009301309194016B017C01C01AD10AE20A53
:10093000F30A970186010A3F11052105310508F4E4
:10094000C1C0609391017093920180939301909341
:10095000940124EF31E040E050E0209340023093D6
:10096000410240934202509343021092440210927B
:1009700045021092460210924702809138029091EF
:100980003902A0913A02B0913B0280933C029093CD
:100990003D02A0933E02B0933F020E944C0260933E
:1009A00038027093390280933A0290933B020E947E
:1009B0004C02609334027093350280933602909318
:1009C00037020E944C026B017C0186E291E00E949A
:1009D00058024AE061E070E080E090E00E94650229
:1009E0008DE291E00E9458024AE0C701B6010E94E0
:1009F00065028FE291E00E94580280913802909146
:100A00003902A0913A02B0913B02A7019601281B3E
:100A1000390B4A0B5B0BCA01B9014AE00E9465021F
:100A20008FE291E00E945802609138027091390281
:100A300080913A0290913B0200913C0210913D025C
:100A400020913E0230913F02601B710B820B930B91
:100A50004AE00E94650281E391E00E9458020E94F0
:100A60004C024AE00E94650283E391E00E94A902E1
:100A70000E944C022B013C017C016B0132E0C30E51
:100A8000D11CE11CF11C0E944C0264157505860501
:100A9000970528F0C616D706E806F906A0F70E94C3
:100AA0004C02609338027093390280933A0290931B
:100AB0003B0208C00E944C0262307105810591051D
:100AC00008F019CFC0907501D0907601E0907701C1
:100AD000F0907801C0927101D0927201E09273019E
:100AE000F09274010E944C020E942C0760937501E1
:100AF000709376018093770190937801A701960116
:100B00000E946D086093790170937A0180937B0154
:100B100090937C0185E991E00E942C01181619063A
:100B2000A4F485E991E00E940A01C82F682F85E9A5
:100B300091E00E946E0182E191E00E945802C1366C
:100B400009F4C5C0C23609F4CDC00DE711E09DE837
:100B5000E92E91E0F92ED0E0C0E0D7018D917D0122
:100B6000882309F440C0F80140805180628073807E
:100B700020E030E040E251E4C301B2010E942707C7
:100B800087FF31C020E030E0A901C301B2010E941B
:100B90002707811114C061E0C230D10509F4B1C04A
:100BA000C330D10509F4B1C0C130D10509F4A3C0E7
:100BB0008CE00E94DB0186E491E00E94A902209172
:100BC000790130917A0140917B0150917C01D801EB
:100BD0006D917D918D919C910E946E08F8016083CA
:100BE00071838283938321960C5F1F4FC430D1059C
:100BF00009F0B3CF0DE711E08DE8A82E81E0B82E03
:100C0000D0E0C0E0D5018D915D01882309F443C097
:100C100020E030E040E251E4F8016081718182819E
:100C200093810E94090987FD36C060E0C230D1057A
:100C300009F407C1C330D10509F407C1C130D1059A
:100C400009F4F7C08CE00E94DB0180E591E00E948E
:100C5000A902C0907D01D0907E01E0907F01F090CC
:100C60008001A7019601C701B6010E940E098823E1
:100C700009F44DC086E591E00E94580282E191E0BE
:100C80000E945802D8011D921D921D921C9213972A
:100C9000F5013197108221960C5F1F4FC430D105AA
:100CA00009F0B0CF8114910409F41ECE0E943801DE
:100CB000882309F419CE0E94000016CE609391019A
:100CC00070939201809393019093940124CE80912C
:100CD0008D0181113ACF30928D018AE391E00E941B
:100CE000A90233CF80918E0181112FCF30928E01D6
:100CF00080E491E0F4CF8BE00E94DB018BE491E093
:100D00005CCF8AE00E94DB015ACF89E0FBCF26014D
:100D10003701E89477F82FEF3FEF4FE75FE7C30124
:100D2000B2010E940E0981110DC02FEF3FEF4FE776
:100D30005FE7C301B2010E94270718161CF48AE579
:100D400091E09ACF2FEF3FEF4FE75FE4C701B60185
:100D50000E94090918161CF48EE591E08DCF2FEF43
:100D60003FEF4FE75FECC701B6010E94270787FD01
:100D7000F3CF20E030E0A901C701B6010E942707A8
:100D800087FF09C06DE285E991E00E946E01F7FAE4
:100D9000F094F7F8F0942AE037ED43EA5BE3C701FB
:100DA000B6010E946E082B013C010E94DA086B011B
:100DB0007C010E942C079B01AC01C301B2010E947F
:100DC0006D082B013C014AE0C701B6010E94650293
:100DD0006EE285E991E00E946E0120E030E040E2A1
:100DE00051E4C301B2010E948D072B013C010E9416
:100DF000DA086B01F12CE12C4AE0C701B6010E9430
:100E00006502C701B6010E942C079B01AC01C3011A
:100E1000B2010E946D0820E030E040E251E40E94FF
:100E20008D070E94DA0890E080E04AE00E946502A7
:100E300025CF8BE00E94DB0182E691E00E94A902AF
:100E400021CF8AE00E94DB011DCF89E0FBCF0E9409
:100E5000690708F481E00895E89409C097FB3EF41F
:100E600090958095709561957F4F8F4F9F4F9923F7
:100E7000A9F0F92F96E9BB279395F6958795779575
:100E80006795B795F111F8CFFAF4BB0F11F460FF35
:100E90001BC06F5F7F4F8F4F9F4F16C0882311F08D
:100EA00096E911C0772321F09EE8872F762F05C0A1
:100EB000662371F096E8862F70E060E02AF09A953C
:100EC000660F771F881FDAF7880F9695879597F931
:100ED0000895990F0008550FAA0BE0E8FEEF1616CB
:100EE0001706E807F907C0F012161306E407F5071E
:100EF00098F0621B730B840B950B39F40A2661F092
:100F0000232B242B252B21F408950A2609F4A14034
:100F1000A6958FEF811D811D08950E94A0070C9456
:100F200011080E94030838F00E940A0820F0952357
:100F300011F00C94FA070C94000811240C94450845
:100F40000E94220870F3959FC1F3950F50E0551F42
:100F5000629FF001729FBB27F00DB11D639FAA270E
:100F6000F00DB11DAA1F649F6627B00DA11D661F5D
:100F7000829F2227B00DA11D621F739FB00DA11D7E
:100F8000621F839FA00D611D221F749F3327A00D38
:100F9000611D231F849F600D211D822F762F6A2FD4
:100FA00011249F5750409AF0F1F088234AF0EE0F39
:100FB000FF1FBB1F661F771F881F91505040A9F766
:100FC0009E3F510580F00C94FA070C9445085F3F52
:100FD000E4F3983ED4F3869577956795B795F795A2
:100FE000E7959F5FC1F7FE2B880F911D969587951A
:100FF00097F9089597F99F6780E870E060E0089599
:101000009FEF80EC089500240A9416161706180620
:101010000906089500240A941216130614060506FC
:101020000895092E0394000C11F4882352F0BB0F8D
:1010300040F4BF2B11F460FF04C06F5F7F4F8F4FF0
:101040009F4F089557FD9058440F551F59F05F3F2B
:1010500071F04795880F97FB991F61F09F3F79F0DA
:1010600087950895121613061406551FF2CF46955C
:10107000F1DF08C0161617061806991FF1CF8695DE
:101080007105610508940895E894BB2766277727C2
:10109000CB0197F90895A1E21A2EAA1BBB1BFD01F3
:1010A0000DC0AA1FBB1FEE1FFF1FA217B307E40747
:1010B000F50720F0A21BB30BE40BF50B661F771F9F
:1010C000881F991F1A9469F760957095809590957F
:1010D0009B01AC01BD01CF0108955058BB27AA2741
:1010E0000E9485080C9411080E94030838F00E94A1
:1010F0000A0820F039F49F3F19F426F40C940008F4
:101100000EF4E095E7FB0C94FA07E92F0E94220801
:1011100058F3BA17620773078407950720F079F42C
:10112000A6F50C9444080EF4E0950B2EBA2FA02DD2
:101130000B01B90190010C01CA01A0011124FF2784
:10114000591B99F0593F50F4503E68F11A16F0407F
:10115000A22F232F342F4427585FF3CF469537957E
:101160002795A795F0405395C9F77EF41F16BA0B43
:10117000620B730B840BBAF09150A1F0FF0FBB1FF1
:10118000661F771F881FC2F70EC0BA0F621F731F3A
:10119000841F48F4879577956795B795F7959E3F97
:1011A00008F0B0CF9395880F08F09927EE0F979528
:1011B000879508950E942A0888F09F5798F0B92FC4
:1011C0009927B751B0F0E1F0660F771F881F991F7C
:1011D0001AF0BA95C9F714C0B13091F00E944408D2
:1011E000B1E008950C944408672F782F8827B85FE2
:1011F00039F0B93FCCF3869577956795B395D9F7D4
:101200003EF490958095709561957F4F8F4F9F4FDD
:1012100008950E94690708F48FEF08950E946907F6
:10122000880B990B0895EE0FFF1F0590F491E02DA8
:061230000994F894FFCFC1
:10123600000000006E01CE00FB00BB012C010A017C
:101246001E010D0A00564D4450565F317C315F56E3
:101256004D4450560A00564D4450455F003A323AC6
:10126600007C005F564D44504500615F6765740021
:10127600625F67657400615F6F6E00625F6F6E002C
:10128600615F6F6666006E616E00696E66006F76FE
:081296006600625F6F666600EE
:107E0000112484B714BE81FFF0D085E080938100F7
:107E100082E08093C00088E18093C10086E0809377
:107E2000C20080E18093C4008EE0C9D0259A86E02C
:107E300020E33CEF91E0309385002093840096BBD3
:107E4000B09BFECF1D9AA8958150A9F7CC24DD24C4
:107E500088248394B5E0AB2EA1E19A2EF3E0BF2EE7
:107E6000A2D0813461F49FD0082FAFD0023811F036
:107E7000013811F484E001C083E08DD089C08234E0
:107E800011F484E103C0853419F485E0A6D080C0E4
:107E9000853579F488D0E82EFF2485D0082F10E0AE
:107EA000102F00270E291F29000F111F8ED06801E7
:107EB0006FC0863521F484E090D080E0DECF843638
:107EC00009F040C070D06FD0082F6DD080E0C81688
:107ED00080E7D80618F4F601B7BEE895C0E0D1E017
:107EE00062D089930C17E1F7F0E0CF16F0E7DF06D8
:107EF00018F0F601B7BEE89568D007B600FCFDCFD4
:107F0000A601A0E0B1E02C9130E011968C91119780
:107F100090E0982F8827822B932B1296FA010C0160
:107F200087BEE89511244E5F5F4FF1E0A038BF0790
:107F300051F7F601A7BEE89507B600FCFDCF97BE46
:107F4000E89526C08437B1F42ED02DD0F82E2BD052
:107F50003CD0F601EF2C8F010F5F1F4F84911BD097
:107F6000EA94F801C1F70894C11CD11CFA94CF0C13
:107F7000D11C0EC0853739F428D08EE10CD085E9AC
:107F80000AD08FE07ACF813511F488E018D01DD067
:107F900080E101D065CF982F8091C00085FFFCCF94
:107FA0009093C60008958091C00087FFFCCF809118
:107FB000C00084FD01C0A8958091C6000895E0E648
:107FC000F0E098E1908380830895EDDF803219F02E
:107FD00088E0F5DFFFCF84E1DECF1F93182FE3DFCA
:107FE0001150E9F7F2DF1F91089580E0E8DFEE27F6
:047FF000FF270994CA
:027FFE00040479
:0400000300007E007B
:00000001FF