:100000000C947B000C94A3000C94A3000C94A3000C
:100010000C94A3000C94A3000C94A3000C94A300D4
:100020000C94A3000C94A3000C94A3000C94A300C4
:100030000C94A3000C94A3000C94A3000C94A300B4
:100040000C94D5030C94A3000C94A3030C947D038F
:100050000C94A3000C94A3000C94A3000C94A30094
:100060000C94A3000C94A3004E414E494E495459A0
:10007000494E46CDCCCC3D0AD7233C17B7D1387773
:10008000CC2B329595E6241FB14F0A000020410089
:1000900000C84200401C4620BCBE4CCA1B0E5AAED3
:1000A000C59D740000000800020100000304070061
:1000B0000000000000000000000000250028002BC8
:1000C0000000000000240027002A000404040404A7
:1000D00004040402020202020203030303030301F5
:1000E00002040810204080010204081020010204CC
:1000F000081020001F0411241FBECFEFD8E0DEBF80
:10010000CDBF22E0A0E4B1E001C01D92AF33B20741
:10011000E1F711E0A0E0B1E0E4E0F9E102C0059010
:100120000D92A034B107D9F710E0CBE7D0E004C0BE
:100130002197FE010E94790ACA37D107C9F70E94A8
:100140005E040C94800C0C940000E6E5F1E0A089BC
:10015000B18982E08C93A485B5851C92A685B7856C
:1001600080E18C93108EA489B58986E08C93A28956
:10017000B3898C9180618C93A289B3898C918860BA
:100180008C93A289B3898C9180688C930288F389BF
:10019000E02D80818F7D8083089590E0FC01E15205
:1001A000FF4F249185539F4FFC018491882399F040
:1001B00090E0880F991FFC01EF53FF4FA591B49178
:1001C000FC01E954FF4F859194918FB7F894EC911D
:1001D000E22BEC938FBF0895AF92BF92CF92DF9244
:1001E000EF92FF920F931F93CF93DF936C017B01EC
:1001F0008B01040F151FEB015E01AE18BF08C0177D
:10020000D10759F06991D601ED91FC910190F081EF
:10021000E02DC6010995892B79F7C501DF91CF91B2
:100220001F910F91FF90EF90DF90CF90BF90AF9014
:100230000895FC01538D448D252F30E0842F90E0EC
:10024000821B930B541710F0CF96089501970895D1
:10025000FC01918D828D981761F0A28DAE0FBF2F9A
:10026000B11D5D968C91928D9F5F9F73928F90E0F0
:1002700008958FEF9FEF0895FC01918D828D98175F
:1002800031F0828DE80FF11D858D90E008958FEF9C
:100290009FEF0895FC01918D228D892F90E0805C65
:1002A0009F4F821B91098F739927089586E591E0EE
:1002B0000E944A0121E0892B09F420E0822F089551
:1002C00080E090E0892B29F00E94560181110C9466
:1002D00000000895FC01A48DA80FB92FB11DA35AE9
:1002E000BF4F2C91848D90E001968F739927848F56
:1002F000A689B7892C93A089B1898C918370806479
:100300008C93938D848D981306C00288F389E02D19
:1003100080818F7D80830895EF92FF920F931F93CA
:10032000CF93DF93EC0181E0888F9B8D8C8D9813A8
:100330001AC0E889F989808185FF15C09FB7F894B4
:10034000EE89FF896083E889F98980818370806400
:1003500080839FBF81E090E0DF91CF911F910F914B
:10036000FF90EF900895F62E0B8D10E00F5F1F4F5A
:100370000F731127E02E8C8D8E110CC00FB607FC69
:10038000FACFE889F989808185FFF5CFCE010E94F7
:100390006A01F1CFEB8DEC0FFD2FF11DE35AFF4FFA
:1003A000F0829FB7F8940B8FEA89FB898081806285
:1003B000CFCFCF93DF93EC01888D8823B9F0AA8942
:1003C000BB89E889F9898C9185FD03C0808186FD10
:1003D0000DC00FB607FCF7CF8C9185FFF2CF80815F
:1003E00085FFEDCFCE010E946A01E9CFDF91CF9169
:1003F000089590E0FC01ED55FF4F2491FC01E1527E
:10040000FF4F3491FC01E553FF4FE491EE23C9F017
:10041000222339F0233001F1A8F4213019F12230E0
:1004200029F1F0E0EE0FFF1FE954FF4FA591B491C1
:100430008FB7F894EC91611126C030953E233C9320
:100440008FBF08952730A9F02830C9F0243049F72C
:10045000809180008F7D03C0809180008F77809392
:100460008000DFCF84B58F7784BDDBCF84B58F7DEF
:10047000FBCF8091B0008F778093B000D2CF809176
:10048000B0008F7DF9CF3E2BDACF1F93CF93DF9350
:10049000182FEB010E94CD00209739F460E0812FE6
:1004A000DF91CF911F910C94F901CF3FD10511F449
:1004B00061E0F5CFE12FF0E0ED55FF4FE491E3303F
:1004C00031F140F4E130B1F0E230E1F0C038D10573
:1004D0007CF7E4CFE73029F1E83059F1E430B1F7A7
:1004E00080918000806280938000D0938B00C093C5
:1004F0008A0004C084B5806884BDC7BDDF91CF91F8
:100500001F91089584B5806284BDC8BDF7CF8091E6
:100510008000806880938000D0938900C093880019
:10052000EDCF8091B00080688093B000C093B3009D
:10053000E5CF8091B00080628093B000C093B4009A
:10054000DDCF3FB7F8948091450190914601A0918D
:100550004701B091480126B5A89B05C02F3F19F06F
:100560000196A11DB11D3FBFBA2FA92F982F882733
:10057000BC01CD01620F711D811D911D42E0660F0E
:10058000771F881F991F4A95D1F708952FB7F894C0
:100590006091410170914201809143019091440129
:1005A0002FBF08950F931F930E94C60260935E01B0
:1005B00070935F01809360019093610186E591E003
:1005C0000E94280197FF1DC00E94C60200915E0193
:1005D00010915F012091600130916101601B710BEE
:1005E000820B930B00915A0110915B0120915C01E9
:1005F00030915D016017710782079307F8F28FEF62
:100600009FEF1F910F910895FC0101900020E9F7E1
:100610003197AF01481B590BBC0186E591E00C9462
:10062000EC008F929F92AF92BF920F931F93CF9344
:10063000DF93CDB7DEB7A1970FB6F894DEBF0FBE3C
:10064000CDBF19A2423008F44AE08E010F5D1F4F62
:10065000842E912CB12CA12CA50194010E94CB09D0
:10066000E62FB901CA01EA30F4F4E05DD801EE9357
:100670008D01232B242B252B79F790E080E0109718
:1006800019F0CD010E940403A1960FB6F894DEBFC5
:100690000FBECDBFDF91CF911F910F91BF90AF9053
:1006A0009F908F900895E95CE1CF0F931F93CF93B4
:1006B000DF93EC0188819981009759F02A813B8171
:1006C0002617370730F081E0DF91CF911F910F910E
:1006D00008958B016F5F7F4F0E94A40B009759F024
:1006E000998388831B830A832C813D81232B59F7AF
:1006F000FC011082E8CF80E0E7CF1F920F920FB687
:100700000F9211242F933F934F935F936F937F9397
:100710008F939F93AF93BF93EF93FF9386E591E001
:100720000E946A01FF91EF91BF91AF919F918F91CC
:100730007F916F915F914F913F912F910F900FBEDD
:100740000F901F9018951F920F920FB60F921124C1
:100750002F938F939F93EF93FF93E0916601F09116
:1007600067018081E0916C01F0916D0182FD1BC0F9
:10077000908180916F018F5F8F732091700182173C
:1007800041F0E0916F01F0E0EA5AFE4F958F8093BF
:100790006F01FF91EF919F918F912F910F900FBE5D
:1007A0000F901F9018958081F4CF1F920F920FB673
:1007B0000F9211242F933F938F939F93AF93BF93E7
:1007C0008091410190914201A0914301B091440177
:1007D0003091400123E0230F2D3758F50196A11DDC
:1007E000B11D209340018093410190934201A09359
:1007F0004301B09344018091450190914601A0913D
:100800004701B09148010196A11DB11D809345019A
:1008100090934601A0934701B0934801BF91AF91D7
:100820009F918F913F912F910F900FBE0F901F902E
:10083000189526E8230F0296A11DB11DD2CFE6E53B
:10084000F1E01382128288EE93E0A0E0B0E08483AE
:100850009583A683B7838AE091E09183808385ECBA
:1008600090E09587848784EC90E09787868780EC7A
:1008700090E0918B808B81EC90E0938B828B82EC6B
:1008800090E0958B848B86EC90E0978B868B118E15
:10089000128E138E148EE3EFF1E01682178210860B
:1008A0001186128613861486158616861786108A78
:1008B000118A128A138A148A158A0895CF93DF93B6
:1008C000CDB7DEB728970FB6F894DEBF0FBECDBF09
:1008D000789484B5826084BD84B5816084BD85B51B
:1008E000826085BD85B5816085BD80916E00816027
:1008F00080936E00109281008091810082608093CD
:1009000081008091810081608093810080918000CE
:100910008160809380008091B10084608093B100F9
:100920008091B00081608093B00080917A008460F3
:1009300080937A0080917A00826080937A0080911F
:100940007A00816080937A0080917A008068809339
:100950007A001092C1001092350210923602109265
:100960003702109238021092F5011092F60110929F
:10097000F7011092F8010E94C6026B017C014B0145
:100980005C0128EB820E2BE0921EA11CB11C0E9480
:10099000C6026C157D058E059F0528F08616970604
:1009A000A806B906A0F70E94A1024B015C0128EE3F
:1009B000C22E23E0D22EE12CF12C0E94A102681954
:1009C00079098A099B09683E734081059105A8F35E
:1009D00031E0C31AD108E108F10848EE840E43E083
:1009E000941EA11CB11CC114D104E104F10429F727
:1009F0000E94A5000E94C6026093F5017093F60163
:100A00008093F7019093F80188E191E00E9404033C
:100A10000E94C6026B017C014B015C018AE0880EDA
:100A2000911CA11CB11C0E94C6026C157D058E058F
:100A30009F0528F086169706A806B906A0F781E05C
:100A4000809309020E94A5008CE00E94CD008BE0FB
:100A50000E94CD008AE00E94CD0089E00E94CD0076
:100A600080E0282E80E0382E94EF892E99249394EC
:100A7000A12CB12C0E94C602672B682B692B09F4AC
:100A8000E0C00E94C602C0905201D0905301E09095
:100A90005401F09055016C157D058E059F0508F4F5
:100AA0001DC1C0905201D0905301E0905401F090CC
:100AB00055019B01AC012C193D094E095F096901E3
:100AC0007A013AEFC316D104E104F10408F4C1C07D
:100AD0006093520170935301809354019093550198
:100AE0008092010290920202A0920302B09204024C
:100AF000109205021092060210920702109208024C
:100B00008091F9019091FA01A091FB01B091FC0153
:100B10008093FD019093FE01A093FF01B09300022A
:100B20000E94C6026093F9017093FA018093FB0161
:100B30009093FC010E94C6026093F5017093F60148
:100B40008093F7019093F8010E94C6026B017C012B
:100B500089E291E00E9404034AE061E070E080E0F5
:100B600090E00E94110380E391E00E9404034AE0B8
:100B7000C701B6010E94110382E391E00E940403C1
:100B80008091F9019091FA01A091FB01B091FC01D3
:100B9000A7019601281B390B4A0B5B0BCA01B9014F
:100BA0004AE00E94110382E391E00E9404036091F5
:100BB000F9017091FA018091FB019091FC01C090C4
:100BC000FD01D090FE01E090FF01F09000026C1951
:100BD0007D098E099F094AE00E94110384E391E098
:100BE0000E9404030E94C6024AE00E94110386E3A9
:100BF00091E00E9404038DE391E00E9404030E94AF
:100C0000C6022B013C017C016B0132E0C30ED11CFA
:100C1000E11CF11C0E94C602641575058605970546
:100C200028F0C616D706E806F906A0F70E94C60205
:100C30006093F9017093FA018093FB019093FC019A
:100C400008C00E94C602623071058105910508F056
:100C500018CF86E591E00E944A01181619060CF09B
:100C60009EC01A8219821C821B821E821D8270E025
:100C700060E0CE0101960E94550329813A818111DD
:100C800036C02115310519F0C9010E941B0B1A82CB
:100C900019821E821D821C821B820E94D2024D81FB
:100CA0005E8197FD2CC08F8318867A018FEFE81A3A
:100CB000F80AB701CE0101960E945503882369F313
:100CC00029813A818D819E81BE01695F7F4F820FAC
:100CD000931F0E946A0CFE82ED82DFCF6093520167
:100CE000709353018093540190935501DACE1E8284
:100CF0001D826FE371E0C9010E946A0CCECF898129
:100D00009A814115510519F0FC01009721F41092C8
:100D10004901E9E4F1E010814115510581F04150AC
:100D200051095E834D83BC016F5F7F4F0E94710C40
:100D3000E981FA818D819E81E80FF91F10828981F6
:100D40009A81009709F453C00E942F072B013C01A0
:100D500020E030E0A9010E94A70887FD1AC020E02A
:100D600030E040E85FE3C301B2010E94740A181644
:100D700084F020E030E04FE753E4C301B2010E9469
:100D80000D090E943E0A123609F45FC0A4F511361F
:100D9000D9F189819A81009711F00E941B0B609113
:100DA0004A0170914B018CE00E94450260914C0118
:100DB00070914D018BE00E94450260914E0170914F
:100DC0004F018AE00E9445026091500170915101EB
:100DD00089E00E9445022114310409F44BCE0E949F
:100DE0005601882309F446CE0E94000043CE412CD0
:100DF000512C3201BECF133669F1143651F670937F
:100E0000510160935001C5CF70934B0160934A012B
:100E10006B01770FEE08FF084AE0C701B601F7FE45
:100E20000DC06DE286E591E00E948C016627772770
:100E3000CB016C197D098E099F094AE00E941103BC
:100E40008DE391E00E940403A4CF70934D01609361
:100E50004C019FCF70934F0160934E01D0CF662716
:100E600077270C943C0791110C948C08803219F070
:100E700089508550C8F70895B0E0A0E0E2E4F7E0BB
:100E80000C94FE095C017B016115710519F0DB0111
:100E90008D939C9385010F5F1F4FF501D0818D2F9E
:100EA00090E00E9433076C01892BB9F5DD32B9F56A
:100EB0000F5F1F4FD5011196DC91C1E05801F1E0A1
:100EC000AF1AB10843E050E060E770E0C5010E944E
:100ED0008F08892B69F5680182E0C80ED11C45E0B6
:100EE00050E06BE670E0C6010E948F08892B21F468
:100EF000680197E0C90ED11CE114F10419F0D70183
:100F0000CD92DC9260E070E080E89FEFC111FFC0FD
:100F100060E070E080E89FE7FAC05801BBCFDB32A9
:100F200029F485010E5F1F4FF501D181C0E0C6CFC6
:100F300043E050E068E670E0C5010E948F08892B0D
:100F4000E9F0F80110E000E020E030E0A9015F01E5
:100F5000B0ED8B2E8D0E89E08815C8F19C2E68941B
:100F600091F88C2F8870C2FF16C0811102C00F5FEC
:100F70001F4F3196D501DC91C92DE9CFE114F10461
:100F800029F00E5F1F4FF7011183008360E070E0CE
:100F900080EC9FE7BCC0882311F001501109A5E047
:100FA000B0E00E94ED099B01AC01220F331F441FEA
:100FB000551F280D311D411D511D283999E939074B
:100FC000490799E15907A8F2C6609C2ED2CFAEEF2F
:100FD0008A1206C0C3FD3CC09C2E689493F8C9CF0A
:100FE000DF7DD534A9F580818D3239F4C061DF0110
:100FF0001296818162E070E006C0DF018B32C1F39E
:10100000119661E070E080535D01A61AB70A8A303C
:10101000F8F4E0E8CE16ECE0DE065CF4B601660F0C
:10102000771F660F771FC60ED71ECC0CDD1CC80EAF
:10103000D11C5D01FFEFAF1ABF0A8C9180538A303B
:10104000A8F1C4FF03C0D194C194D1080C0D1D1D9B
:10105000C1FF09C0E114F10431F081E0A81AB10820
:10106000D701AD92BC92CA01B9010E94AC08C3700D
:10107000C33009F490584B015C0120E030E0A90135
:101080000E94A708882309F440C0CFE9D0E017FFE9
:1010900005C0119501951109C7E8D0E06E01B8E1CE
:1010A000CB1AD10880E2E82EF12C0FC0D501B1CFC8
:1010B000FE0125913591459154910E191F09C501E5
:1010C000B4010E940D094B015C01D501C4010E154C
:1010D0001F0574F72497F594E794CC16DD06A9F75D
:1010E0008A2F880F8B2F881F8F3F49F020E030E038
:1010F000A901C501B4010E94A708811106C082E2BE
:1011000090E090933A0280933902C501B401CDB7C3
:10111000DEB7ECE00C941A0A992788270895FB01A2
:10112000DC014150504088F08D9181341CF08B35AA
:101130000CF4805E659161341CF06B350CF4605EDC
:10114000861B611171F3990B0895881BFCCF0E94D7
:10115000E90808F481E00895E89409C097FB3EF49B
:1011600090958095709561957F4F8F4F9F4F9923F4
:10117000A9F0F92F96E9BB279395F6958795779572
:101180006795B795F111F8CFFAF4BB0F11F460FF32
:101190001BC06F5F7F4F8F4F9F4F16C0882311F08A
:1011A00096E911C0772321F09EE8872F762F05C09E
:1011B000662371F096E8862F70E060E02AF09A9539
:1011C000660F771F881FDAF7880F9695879597F92E
:1011D0000895990F0008550FAA0BE0E8FEEF1616C8
:1011E0001706E807F907C0F012161306E407F5071B
:1011F00098F0621B730B840B950B39F40A2661F08F
:10120000232B242B252B21F408950A2609F4A14031
:10121000A6958FEF811D811D08950E9420090C94D1
:1012200091090E94830938F00E948A0920F09523D1
:1012300011F00C947A090C94800911240C94C509BE
:101240000E94A20970F3959FC1F3950F50E0551FBE
:10125000629FF001729FBB27F00DB11D639FAA270B
:10126000F00DB11DAA1F649F6627B00DA11D661F5A
:10127000829F2227B00DA11D621F739FB00DA11D7B
:10128000621F839FA00D611D221F749F3327A00D35
:10129000611D231F849F600D211D822F762F6A2FD1
:1012A00011249F5750409AF0F1F088234AF0EE0F36
:1012B000FF1FBB1F661F771F881F91505040A9F763
:1012C0009E3F510580F00C947A090C94C5095F3F4C
:1012D000E4F3983ED4F3869577956795B795F7959F
:1012E000E7959F5FC1F7FE2B880F911D9695879517
:1012F00097F9089597F99F6780E870E060E0089596
:101300009FEF80EC089500240A941616170618061D
:101310000906089500240A941216130614060506F9
:101320000895092E0394000C11F4882352F0BB0F8A
:1013300040F4BF2B11F460FF04C06F5F7F4F8F4FED
:101340009F4F089557FD9058440F551F59F05F3F28
:1013500071F04795880F97FB991F61F09F3F79F0D7
:1013600087950895121613061406551FF2CF469559
:10137000F1DF08C0161617061806991FF1CF8695DB
:101380007105610508940895E894BB2766277727BF
:10139000CB0197F90895A1E21A2EAA1BBB1BFD01F0
:1013A0000DC0AA1FBB1FEE1FFF1FA217B307E40744
:1013B000F50720F0A21BB30BE40BF50B661F771F9C
:1013C000881F991F1A9469F760957095809590957C
:1013D0009B01AC01BD01CF0108950E942F0AA59F7A
:1013E000900DB49F900DA49F800D911D1124089520
:1013F0002F923F924F925F926F927F928F929F9225
:10140000AF92BF92CF92DF92EF92FF920F931F9312
:10141000CF93DF93CDB7DEB7CA1BDB0B0FB6F894C3
:10142000DEBF0FBECDBF09942A88398848885F8403
:101430006E847D848C849B84AA84B984C884DF8074
:10144000EE80FD800C811B81AA81B981CE0FD11D58
:101450000FB6F894DEBF0FBECDBFED010895A29F79
:10146000B001B39FC001A39F700D811D1124911D78
:10147000B29F700D811D1124911D08950E94450A8F
:101480006894B1110C94C50908950E94AA0988F0C6
:101490009F5798F0B92F9927B751B0F0E1F0660F38
:1014A000771F881F991F1AF0BA95C9F714C0B13079
:1014B00091F00E94C409B1E008950C94C409672F0B
:1014C000782F8827B85F39F0B93FCCF386957795A8
:1014D0006795B395D9F73EF4909580957095619591
:1014E0007F4F8F4F9F4F08950E94E90808F48FEFB8
:1014F0000895EE0FFF1F0590F491E02D09940F93CE
:101500001F93CF93DF938230910510F482E090E037
:10151000E0913D02F0913E0230E020E0B0E0A0E03A
:10152000309799F42115310509F44AC0281B390B6D
:1015300024303105D8F58A819B816115710589F1C7
:10154000FB0193838283FE0111C04081518102819E
:10155000138148175907E0F04817590799F4109775
:1015600061F012960C93129713961C933296CF014A
:10157000DF91CF911F910F91089500933D02109339
:101580003E02F4CF2115310551F04217530738F0D0
:10159000A901DB019A01BD01DF01F801C1CFEF0113
:1015A000F9CF90933E0280933D02CDCFFE01E20F32
:1015B000F31F819391932250310939832883D7CF28
:1015C00020913B0230913C02232B41F420910201F7
:1015D0003091030130933C0220933B0220910001A3
:1015E000309101012115310541F42DB73EB74091ED
:1015F000040150910501241B350BE0913B02F09151
:101600003C02E217F307A0F42E1B3F0B2817390703
:1016100078F0AC014E5F5F4F2417350748F04E0F4E
:101620005F1F50933C0240933B02819391939FCF65
:10163000F0E0E0E09CCFCF93DF930097E9F0FC016E
:10164000329713821282A0913D02B0913E02ED01C9
:1016500030E020E01097A1F420813181820F931FA8
:1016600020913B0230913C022817390709F061C0F4
:10167000F0933C02E0933B02DF91CF910895EA01A1
:10168000CE17DF07E8F54A815B819E0141155105C0
:10169000B1F7E901FB83EA8349915991C40FD51F42
:1016A000EC17FD0761F4808191810296840F951FEC
:1016B000E90199838883828193819B838A83F0E007
:1016C000E0E012968D919C9113970097B9F52D91BA
:1016D0003C911197CD010296820F931F20913B02FE
:1016E00030913C022817390739F6309751F510929E
:1016F0003E0210923D02B0933C02A0933B02BCCF4D
:10170000D383C28340815181840F951FC817D907A5
:1017100061F44E5F5F4F88819981480F591F518353
:1017200040838A819B81938382832115310509F04F
:10173000B0CFF0933E02E0933D029ECFFD01DC016D
:10174000C0CF13821282D7CFB0E0A0E0EAEAFBE07C
:101750000C94FA098C01009751F4CB010E947F0A86
:101760008C01C801CDB7DEB7E0E10C94160AFC018C
:10177000E60FF71F9C0122503109E217F30708F426
:101780009DC0D901CD91DC911197C617D70798F06C
:10179000C530D10530F3CE0104978617970708F3BB
:1017A000C61BD70B2297C193D1936D937C93CF0126
:1017B0000E941B0BD6CF5B01AC1ABD0A4C018C0EEC
:1017C0009D1EA0913D02B0913E02512C412CF12C66
:1017D000E12C109731F580913B0290913C028815E5
:1017E000990509F05CC04616570608F058C080916C
:1017F000000190910101009741F48DB79EB740918F
:10180000040150910501841B950BE817F90708F0B6
:1018100055C0F0933C02E0933B02F9017183608371
:10182000A0CF8D919C91119712966C901297139660
:101830007C901397A815B90559F56C0142E0C40EC8
:10184000D11CCA14DB0420F1AC014A195B09DA018E
:101850001296159780F06282738251834083D9017A
:101860006D937C93E114F10471F0D7011396FC930E
:10187000EE93129776CF22968C0F9D1FF9019183DC
:101880008083F301EFCFF0933E02E0933D0269CFF6
:101890004816590608F42C017D01D3019ACFCB01DB
:1018A0000E947F0A7C01009749F0AE01B8010E94B6
:1018B000610CC8010E941B0B870153CF10E000E0B0
:1018C00050CFFB01DC0102C001900D92415050400D
:1018D000D8F70895FB01DC0101900D920020E1F79B
:1018E0000895FB01DC014150504048F001900D92F9
:1018F0000020C9F701C01D9241505040E0F7089503
:04190000F894FFCF89
:1019040000003F028000000000008C01EC0019017F
:10191400D9014A0128013C01564D4450565F317C9F
:10192400315F564D4450560A00564D4450455F00B1
:101934003A323A007C005F564D445045000D0A008F
:00000001FF
